:20000000004000205D6D010001C9011001C9011001C9011001C9011001C9011001C9011093
:1C00200001C9011001C9011001C9011001C9011001C9011001C901103FC9011089
:20003C002DE9F04F8046ADF5FE7DADF1600DA098D8F800408A90D8F800001F4616460D461B
:20005C001AF008F989970146889600229295204609198C9281428B9140F20285A94A949254
:20007C008C9F90979392394686919191879195914FF0FF368396869981910F468DF81072DD
:20009C0082970778252F08BF0A1C14D0002F00F0E784D8F80010899A0078491CC8F800104D
:2000BC0088999047D8F800008C990778491C252F8C91EBD1819AD8F80030929D41465B1CDE
:2000DC00C8F8003011E042F010020AE042F0010207E042F0020204E042F0080201E042F070
:2000FC00040281920868401C0860086800782038F5D0C01EF0D00838EBD0801EE6D0C01EC7
:20011C00E1D00C46206801782A2917D0302901AA0ADB3A2908DA0146401C2060097802F8B9
:20013C00011B01783029F4DA879810709DF80470B7B101A816F058F9829011E0ED1C25F0B6
:20015C0003052D1D55F8041C002903D542F00102819249428291284621689290491C2160DE
:20017C00206801782E2926D1401C206001782A2916D0302901AA0ADB3A2908DA0146401CB5
:20019C002060097802F8011B01783029F4DA879810709DF804706FB101A816F025F909E00E
:2001BC002168ED1C25F003052D1D491C929555F8040C21608390D8F80010819E08784C38AA
:2001DC002ED01C3814D0801E27D0801E04D0083820D0801F1BD02BE0491C0878C8F800104C
:2001FC006C2818BF46F040060CD146F4807619E0D8F80010491C0878C8F80010682803D0FE
:20021C0046F02006819613E046F400760AE046F4805607E046F4005604E046F4006601E0D6
:20023C0046F080068196D8F80010491CC8F800100978D8F800006E298DF8101200F1010039
:20025C00C8F8000000F0CE83732900F027830DF20120829C859020214FF4FF7201A813F057
:20027C000BFC859887990DEB040707F1040B01700A468D920DF5007C8E920E468F929DF88C
:20029C001032CDF814C21846642814DC642821D0253800F0EE821C3800F04981001F0228FA
:2002BC0040F24581133815D0093800F04081801E00F02E82B3E16538022840F23881001F65
:2002DC0008D0801F012805D9801F18BFB0F1030040F0A5818399002904D4819820F01000BE
:2002FC00819002E0012083900146B3F1580007D0173809D0401E03D0083818BF0A2204D130
:20031C00102202E0FFFF0F000822702B00F0B280819843F66077B246B1463840203800F0E1
:20033C008B8020387AD0C03861D0B0F5807047D0B0F5C06036D0B0F5006025D0B0F58050E5
:20035C0013D0B3F1580000F095800C3800F08980401F00F08680801F00F08C80801F00F0E1
:20037C008980C01E00F086808EE0B3F1580000F081800C3875D0401F73D0801F7AD0801F76
:20039C0078D0C01E76D07FE0B3F1580072D00C3867D0401F65D0801F6CD0801F6AD0C01E97
:2003BC0068D071E0B3F158002FD00C382DD0401F2BD0801F29D0801F27D0C01E25D063E0BE
:2003DC00B3F158000AD00C384BD0401F49D0801F04D0801F18BFB0F1030055D1ED1C25F083
:2003FC0003052D1D15F8049C4FF0000A4BE0B3F158000AD00C3808D0401F06D0801F04D0D4
:20041C00801F18BFB0F103003ED1ED1D25F007050835A5F1080090E8000634E0B3F1580003
:20043C0028D00C381DD0401F1BD0801F22D0801F20D0C01E28D11DE0B3F158000AD00C381F
:20045C000FD0401F0DD0801F04D0801F18BFB0F1030019D1ED1C25F003052D1D35F8044C01
:20047C000EE0ED1C25F003052D1D55F8044C4FEAE47A07E0ED1C25F003052D1D55F8044CDA
:20049C004FF0000AA1469295CD174C465046214350EA050708BF002903D181990D09C0F08F
:2004BC004D81642B18BF692B08D1002806DA012764424FF000018E9761EB000085A9009139
:2004DC000146204610F02EFC8399401C814227DA9DF81032782B03D0582B18BF702B11D1C9
:2004FC00819908090FD3702B08BF7823859803708598401E85903021017085989DF8103200
:20051C00401E859081996F2B40F018810809C0F0158185984278302A00F010813021F2E0A3
:20053C00859930220A708599491E8591CCE7ED1D184625F00705A0F1610108359295083D42
:20055C0095E80006192998BF20383446984208BF012447F6F07147F6F07000EA1A40814289
:20057C0012D1939F51464FF0000E4D460A004EEA020245EA0E014FF0FF35174005EA010293
:20059C0008BF002A40F0A680371C40F0A38047F6F07181420FD1949F5146484600250A008A
:2005BC00284345EA02014FF0FF320F4002EA000008BF00283CD0371C3AD151464FF0004068
:2005DC000840070007BF002000288AF0004A0126B3F1410025D0001F19D0401E10D0401E39
:2005FC0007D01A381DD0001F11D0401E08D0401E15D15146484681AA85AB07F067FE0CE087
:20061C005146484681AA85AB15F018FB05E05146484681AA85AB0BF07BFB9DF8103281995F
:20063C008CE05146484681AA85AB05F06FFF2AE098A20CCA5146484612F04EFC25D3002CA0
:20065C0014BF4621662185988DF80012002CA0F10100859014BF4E216E2101708599002CAA
:20067C00A0F10100A1F10101859114BF4921692101708599491E85912B2700F8017C85986B
:20069C000326401E8590819956E0002C14BF4621662185988DF80012002CA0F101008590DE
:2006BC0014BF4E216E2101708599002CA0F10100A1F10101859114BF492169210170859900
:2006DC00491E85912D2700F8017C8199DDF814C204262EE0002C14BF4E216E2160468DF893
:2006FC000012401E002C859014BF4121612101708599002CA0F10100A1F10101859114BFAC
:20071C004E216E21022601708598401E859084E7ED1C25F0030534462D1D15F8047C92958D
:20073C0007B901248F9481998DF8007221F0020181916046401E85909DF810328598752BB1
:20075C0000F1010229D06F2B27D0782B25D0582B23D0702B21D01EB1761E1ED101238E93CE
:20077C0001F002038E9F8D931FB98B0808D32B2100E02D21017085988199521E401E8590CF
:20079C008D9E374309D1C80807D385982021017085988199521E401E859048080DD2859CDB
:2007BC008298ADEB040101F20121884205DB01A8241A5C44A4F5FE7400E001AC1146959A02
:2007DC0020464FF4FF7319F0BDFA8F9F859027B1879901708598401C8590834509D3ABEBAE
:2007FC0000022021401E521C13F046F987988BF80000819840092ED301A8A04232D001A851
:20081C00221A302101A813F037F98D9F8E9E374305D18198C00838BF0DF1050007D320785E
:20083C0030218DF804000DF1060004F8011B9DF81022782A03D0582A18BF702A02D181998A
:20085C00090903D2612A18BF412A0BD1617801703027677006E001A8241A2021224601A855
:20087C0013F00AF901A819F0F5FC8F9F0246D21904E07EA00188012201AF39808A9B8899F5
:20089C0001A89847B0F1FF3F00F0A3808C9909188C91DBE00000000000000000839CF0098C
:2008BC0048D2DDF82092E81C20F00300001D50F8045C9290002D00F09080829F002C06D429
:2008DC00284619F0C7FCA04288BF201C02D8284619F0C0FC0446BC42A8BF071C8C98A74271
:2008FC0038448C900ADD700808D23E1B002E05DD899A202049469047761EF9D1002C07DD6B
:20091C002646899A15F8010B49469047761EF8D18198A74240F39A804008C0F097803F1B98
:20093C00002F40F39380899A2020494690477F1EF9D18BE0DDF82092ED1C25F003052D1D94
:20095C0055F8047C9295002F47D0002C06D4384619F01EFDA04288BF839C03D8384619F0EF
:20097C0017FD0446829EB442A8BF261C8C98A64230448C900BDD8198400808D2351B002D02
:20099C0005DD899A2020494690476D1EF9D1002C0BDD2546BF1E37F8021FC8B2884214D166
:2009BC00899A494690476D1EF5D18198A6424DDD40084BD3361B002E48DD3746899A20202C
:2009DC00494690477F1EF9D140E019F005FF582101604FF0FF308C9042E0899A959849469C
:2009FC00904733E043F660703040203825D0E0380ED0B0F5807017D0B0F5C06008D08C99F7
:200A1C00ED1C25F003052D1D55F8040C01601CE08C99ED1C25F003052D1D55F8042C084630
:200A3C00C91782E8030010E08C99ED1C25F003052D1D55F8040C017007E08C99ED1C25F0D0
:200A5C0003052D1D55F8040C018092958C98B0F1FF3F05D0D8F800008B9981423FF608ABAC
:200A7C008C987FB018B0BDE8F08FC046250070472DE9F04F0646ADF1640D0A91B0680C9337
:200A9C0037680B92884238BF0A90F96918460918491F38460AF00EFE5FEA000900F19C8275
:200ABC00D7F838E0CDF834E0B189CDF838E04FF00008ADF8201044461694C446CDF85CC008
:200ADC00CDF860C0CDF840C0CDF844C0FA69CDF848C00A9BCDF84CC0521FCDF850C04FF656
:200AFC00FF7BCDF854C0B3FBF2F0B3FBF2FA50431FFA8AFA1B1A0F9327E0A4B1F969A1F106
:200B1C004D004008504506D80839AAEB0000490816F08EFC00E051460E98BDF8242000EBF9
:200B3C00410002810AE00D99BDF824000A9B01EB4A02A2F84D0003EB08008860A844189D29
:200B5C000AF101001FFA80FA0F95B9F1000F40F0BF810C98404540F2BB81F869A0F14D0146
:200B7C004908514509D8A0F10802AAEB01015208B1FBF2F1491C8CB200E0189CA34500F067
:200B9C004581B8F1000F79D0BBF1000F34D10A9B0D9803EB08058560DBB9BDF82020189B4C
:200BBC00384631460FF0CEF9002800F11482F8690090B96B0191BDF820303969B6F904208E
:200BDC0000FB03130621384611F078FA002852D501E2B86B0090109B01931A460292039520
:200BFC000DF122010491F288B389384631460CF08BFD00283FD5EEE1BDF8202038463146FF
:200C1C005B460FF09FF9002800F1E581F8690090B96B0191BDF820303969B6F9042000FBE5
:200C3C0003130621384611F049FA002800F1D3810E984088BDF820500090129B01951A4666
:200C5C000293B96BF38838460AF042F91398009005462B4601950A9D0293454403950DF1A9
:200C7C0022020492F288B389314638460CF04CFD002800F1B081B5607561F869B94D2CBB2B
:200C9C000090B96B0191BDF820303969B6F9042000FB0313384616210DF052FE002800F14C
:200CBC009A810D980079410852D230F07F0355D0810857D2C0085ED2F3886FF30E03002BE8
:200CDC0059D00D98408884425CD19DE0B168A0F14D02431F5208491EB1FBF3F18A4207D89B
:200CFC000838891A4008B1FBF0F0401C80B200E01898B8F1000F4DD1A0424BDB308A8442A5
:200D1C000DD00DF126000090189BF1882246384641F4004111F0EEF8002803D55BE1F08902
:200D3C00ADF82600F8690090B96BBDF8263001913969B6F9042000FB0313162138460DF0E2
:200D5C00FFFD002800F147810D980079410802D32846083841E130F07F0301D128463CE18F
:200D7C00810802D32846401E37E1C00803D2F3886FF30E0313B92846801E2EE10D98408836
:200D9C00844202D02846093827E1BDF82600ADF8200031E0F920F1888DF81C00169DADF8AC
:200DBC001A40012241F400402B46ADF818003846009541F40041019508AD029206AA039547
:200DDC0008F0FCFA002800F10681B86BFA69FF2112F052FE06A9B86B0A68026009790171D7
:200DFC000094BDF820000190189D0295F388B96B012238460AF06CF8BDF8205034820A9876
:200E1C00F58140447061B060F869A3460F9D0C99451BA1EB08016D1F8D4288BF0D1C0F9BD6
:200E3C00002B38D094B1A0F14D014A08524507D8A0F10801AAEB0200490816F0F9FA00E01C
:200E5C0051460E9800EB4100008904E00D9800EB4A00B0F84D00ADF82400BDF82420314698
:200E7C00534638460FF088FC002800F1B4800B98BDF82430009540440190F9693869B6F967
:200E9C00042003FB01000F9B07211B1838465B1D11F014F918E0FD218DF81C10F088ADF826
:200EBC001AA0C0F30E01ADF81810012200950B99019308EB0103C0F30E01029209AA38465F
:200EDC00039206AA08F07AFA5FEA00093FF415AEBDF8200034820A9DF0814544B560002C90
:200EFC00756141D10A9850BB0D98BDF8202031462346856038460FF025F800286BD4F86980
:200F1C000090B96B0191BDF820303969B6F9042000FB03130621384611F0D0F800285AD420
:200F3C000D9841880091BDF82050019580680290F388B96B0422384609F0CAFF4CE0B86B0D
:200F5C000090189C0194029403950DF122030493F288B389314638460CF0D6FB00283BD504
:200F7C0039E0C046ECD8FFFFBDF820203846314623460EF0E7FF00282DD4F8690090B96BFF
:200F9C000191BDF820303969B6F9042000FB03130621384611F092F800281CD40E98408862
:200FBC000090BDF820400194189C0294B96BF3883846224609F08CFF009401940294039531
:200FDC000DF122000490F288B389314638460CF09BFB002800D58146484619B0BDE8F08FC5
:040FFC000C2070470E
:20100000B41200001810000015AB0110FDB301106DC00110FDAE011099B5011000000000F7
:08102000000000003000000098
:20102800B01200003C100000B1C00110A9BF011067C0011069B80110000000000000000035
:041048002E00000076
:20104C00B012000060100000BDC00110CDB30110D9BD01106DB3011000000000000000005B
:04106C002F00000051
:20107000000000001411002004000000000000000000000020000000E8C901103000000005
:20109000281000001C1100200400000000000000000000000C000000D8CA011018000000E0
:2010B0004C1000002411002004000000000000000000000024000000F0CA01101800000064
:2010D000000000002C1100200400000000000000000000001000000018CA01102C00000070
:2010F0000010000034110020040000000000000000000000200000006CCA011024000000DC
:20111000FFFFFFFF3C1100200400000000000000000000002800000090CA0110240000009B
:20113000FFFFFFFF441100200400000000000000000000001400000008CB0110180000001A
:20115000FFFFFFFF4C11002004000000000000000000000058000000B4C9011034000000E8
:20117000FFFFFFFF541100200400000000000000000000001000000020CB011018000000B6
:20119000FFFFFFFF5C1100200400000000000000000000001C000000B4CA011024000000E3
:2011B000FFFFFFFF641100200400000000000000000000003800000044CA0110280000000B
:2011D000FFFFFFFF6C1100200400000000000000000000005400000078C901103C00000080
:0811F00002000000E0F701001D
:0411F80001000000F2
:0411FC0000000E00E1
:0412000000000F00DB
:0412040032000000B4
:0412080001000000E1
:04120C00E40F0020CB
:0412100000020000D8
:04121400A1E600004F
:0412180001C90110F7
:04121C0000000000CE
:0412200000000000CA
:0412240008000000BE
:04122800000023009F
:04122C007C0D002015
:0412300001000000B9
:04123400FC0F00208B
:0412380008000000AA
:04123C004C0F002033
:0412400000000000AA
:0412440000000000A6
:04124800080000009A
:04124C00000000009E
:04125000000000009A
:041254000000000096
:041258000000000092
:04125C00010000008D
:04126000E40D002079
:041264000600000080
:041268000100000081
:04126C00D80B00207B
:04127000000000007A
:041274000000000076
:041278000002000070
:04127C00000000006E
:021280002A0042
:02128200010069
:02128400250043
:021286002E0038
:021288002F0035
:02128A00300032
:02128C0001005F
:01128E00015E
:081290000300000094F70100C7
:0812980000000000000000004E
:0412A0000000010049
:0412A4000000030043
:0412A8008D0C0100A8
:0412AC009DA0010000
:0412B000B812000070
:0412B400B81200006C
:0412B8000000000032
:0412BC00FC0F002003
:0412C000BFA30100C7
:0412C4002000000006
:0412C8007CF40100B1
:0412CC00E4F1010048
:0412D00029C101101F
:0412D400831601007C
:0412D80037230100B7
:0412DC00BFA80100A6
:0412E000A3C701108F
:0412E4000000000006
:0412E8002BF20100E4
:0412EC003CEA0100D7
:0412F00054EA0100BB
:0412F40024EA0100E7
:0212F8000200F2
:0212FA000900E9
:0212FC000100EF
:0212FE000000EE
:0113000001EB
:0413040085A20100BD
:04130800B17F0100B0
:04130C00FD9501004A
:04131000C185010092
:041314004982010009
:04131800196A01004D
:04131C007D29010026
:04132000F5A501002E
:0413240079560100F5
:0413280015C70110D4
:04132C0025C70110C0
:201330002DE9F04FA84CADF13C0D2546642019F0F7FB20680028F9D0A64829680C90A34804
:20135000884209D80029F1D02868A149814203D90C9819F0E5FBFBE7284600680028E5D0AD
:201370000CF050FDC24FC448DFF81493C64E39680D9001294ED114F03BFDBE4D95F9000009
:20139000B0F1FF3F46D1DDF83480404618F0A3FFBA49404618F0C2FC01240A2091A1632239
:2013B000009005230194404602F008FB1F2090A16322009005230194404602F0FFFA34204E
:2013D00093A16322009005230194404602F0F6FA492097A16322009005230194404602F0A4
:2013F000EDFA404619F095F84846006800214FF080424FF0FF3319F08FFBA24893A197A267
:201410000CF002F90DF0FCFB15F0F8FF3078401E30702C7010F028FDDFF870A29AF90000F2
:20143000002800F003833078DFF8648218B940460078002864D1DDF834B0584618F04BFFC4
:201450008E49584618F06AFC03A80021212212F019FB327803A8BEA116F030F801250A2042
:2014700003A96322009005230195584602F0A6FA9AF900201F24002A0CDC03A8C4A116F08F
:201490001DF80094584603A963220523019502F095FA34243A68002A1ADC03A8C0A116F059
:2014B0000DF80094584603A963220523019502F085FA38681534E4B210F1640F08D1009425
:2014D0002846BCA1632205230190584602F076FA37783FB100945846BDA163220523019581
:2014F00002F06CFA584619F014F8307840B14846006800214FF080424FF0FF3319F00CFB9F
:2015100011F080FEC84C40F2E7352088854200F08982A078002800F06F82C448007858B1C2
:201530004146891C087818B9487808B9887818B10A200FF0DFF902E065200FF0DBF916F093
:201550008DF9B6A017F032FEB94DDFF8F482DFF8E4A2DFF8E492DFF8E4B234E240080CD3C1
:2015700011F0BCF946480068002104220B4619F0D3FA02A8042119F027F80298002840F058
:20159000898028460778122F80F284805046067816BB4846067896B9C94806785EB937B9B8
:2015B000584600684FF4807119F0B2FA16E000200FF0A0F912E0002014F058FE0EE0002004
:2015D00013F076FC0AE0C046FC10002000350C0060C51B00A086010016F01AFDC849002074
:2015F0000870F0E15741524E494E4721212100C053746F72656420636F6E6669672073655A
:20161000656D7320696E76616C69642E00C046C0507265737320616E79206B657920746F99
:2016300020726567656E65726174652E00C046C05468697320434C4541525320414C4C20D9
:2016500050524F47524553532100C0462F7162616467652F636F6E6600C046C02F7162614D
:201670006467652F636F6E662E62616B00C046C0EC100020F0100020483B002078E10100FA
:20169000F83C0020A0380020E8100020E91000200236002002A8022118F096FF28B116F01C
:2016B00043FD0298002800F08E810298C1095AD329460978652956DA58460068802119F02A
:2016D00027FA5046077800260FB116F0A1FC4846077817B1304613F0EBFB7948077817B1FF
:2016F000304614F0C3FD12200FF004F9AF48008818F095FC00B10326AC482D30076816F0BA
:2017100033FC3C38B84202D2384617F05DFFA74AA648A649521D935D5A0002EB83020088E6
:201730008978A24B1B1D9B5DD218530003EB82039E4AD21C925DD2189C4BD2B2553303F036
:2017500071FFDBF80000202119F0E2F93BE1C046504F5354206572726F7220636F756E7416
:201770003A20256400C0000A3FD32846007865283BDA504607780FB116F04AFC48460778E4
:2017900017B1002013F094FB0A200FF0B3F81AE120204C4544206572726F723A20256400AE
:2017B0002020535049464653206572726F723A20256400C0416C6D6F73742066756C6C2CB2
:2017D0002064656C6574652066696C65732E00C050726573732061206B657920746F2063C8
:2017F0006F6E74696E75652E00C02846007865282AD099F800703FBB4046007800F03F0054
:20181000152821D102A84FF0804118F0DDFED8B19AF80070B7B90EF039F915E02E63757264
:2018300072656E7400C046C0003600207B3600207C1100207D1100207E110020C83C0020C4
:20185000A811002016F0E4FB4046007800F03F0022280DD117F04AFD50B102A84FF080416C
:2018700018F0B2FE20B110F0F1FF0D9818F051FE0298C00F3ED36F4809300778002F39D0C2
:201890004046007800F03F00112803D0122801D014282FD198F8000000F03F00113807D0D9
:2018B000401E03D0801E04D1022402E0012400E000246848007F844204D06648047704E06D
:2018D0007F1100205B4906200870284600780C2801D0122807D10A49012008705948006814
:2018F000012119F015F9DBF80000202119F010F917F0ACFC9AF80070002F61D102E0C0467F
:20191000720E002099F80070002F55D152480778002F4DD1284607787FB90298C00F08D3F2
:2019300098F8000000F03F00252802D10A200EF0E1FF029816F0BEFE45E028780A2842DB40
:2019500002980DF0BDFD00283DD128780A3829D0401E23D0401E1DD0401E17D0401E11D0F5
:20197000001F0BD0401E05D052382CD102980AF0DFFC28E002980DF04FFF24E002980FF0AA
:2019900089FA20E0029805F023F81CE0029816F02AFF18E0029805F0ADFE14E0029816F07F
:2019B00009FF10E0029811F0EDFF0CE0300A0020029814F075FE06E002980AF06DF802E080
:2019D000029806F0ADFA1F481B4B006800214FF0FF3219F0A1F81C490F6802901FB11B49B6
:2019F000B9423FF6BBAD1849194A09688A427FF6B5AD0FF053FBFEE701204146087016F00F
:201A100093FB0D9C204618F066FC0C480C490022134603F045FB204618F07BFD0C9819F0C5
:201A30007FF8FBE70C9819F07BF86EE50A2019F077F8F3E41C36002060EC5300643B002081
:201A500060F60100F83C0020FC10002000350C0060C51B00003600207F1100202DE9F04FC3
:201A700000270546ADF1740D0B97384611901A901890169013901490159012901990EA6982
:201A9000109051001B9089B20A9124E001200C9013E0BAF1000F0DD02F6E37B11098022129
:201AB0000522234600902846B847284621460EF0C5FE0746002F00F10583EA6908F10100B1
:201AD0005FFA80F834E209F1010926E20B980A99401880B20B90A969286A0B9EB1FBF2F1BC
:201AF0004843B04240F2EE82DDF86C80A86B414611F0C8FFCDF83080EA69CDF8348001E270
:201B10002E6EA969BEB1B1FBF2F10D9B0A9A0B9C41435A431302B3FBF1F3B3FBF0F3119814
:201B30002202B2FBF1F100905B18024602212846B047A969EA69B1FBF2F04100B1FBF2F647
:201B500006B901260D9901FB00601FFA80F8CAE10520009004AF0197286908FB02031B9A03
:201B7000152128460CF0F2FE071C00F1AB820B981B9E404504DC0A9940184045C8BF012695
:201B90000B9A9DF8141008F00100A8EB02028000520866B131F07F0409D04B0807D2AB6B97
:201BB000D45C012181402143D1549DF8141001EA610434F03F0400F0918111F0050F40F0C2
:201BD0008D8146B1A96B535C801C4FF0010C0CFA00F018435054E8690090696B1B9A019154
:201BF000296908FB0013152128460CF0AFFEBDF81260071C00F16682686B82464EB94D309E
:201C1000EA69DDF86CB00E90A2F14D0148080F900EE0EA690830A2F10803761EA2F14D0176
:201C30000E905B0849080F9303FB06111FFA81FBDDF86C90C9E03246BDF82230CDF80080B8
:201C5000284607F051F907464448B84202DB4448B84208DB2E6E002E79D0BDF81200009042
:201C7000BDF810305FE02F6EBDF8103019463FB112980221062200902846B847BDF8101078
:201C9000284611F003FE61E008A800901B9BBAF800000BEB0904A6B23246C0F30E012846D8
:201CB00010F02EF9A049814204BF1398ADF82000002800F1FE81BDF82070D7B9FC208DF800
:201CD0001C00149FBAF800000122ADF81A403B46C0F30E01ADF818103C4600972846019425
:201CF00008AF029206AA039707F06EFB002800F1E081CDF80080BAF80010BDF820302846EB
:201D1000324641F4004107F0EFF807461348B84202DB1348B8420BDB2E6EC6B1BAF8020066
:201D30000090BAF80030022128460A46B0470EE02F6E3FB116980090BAF800300221062263
:201D50002846B847284641460EF078FD0746002F00F1B88101200C9034E0C046BDD8FFFF8E
:201D7000BAD8FFFFA86B3146621A5608815D04F00102940017910122611C8A4017990A42E8
:201D90001AD02F6E3FB118980221062200902846B847BDF810302846194611F077FD002865
:201DB00000F18781284641460EF048FD071C00F189810121A86B0C91815D641C0122A2408F
:201DD0000A438255EA6909F101090C9E002E40F086800F98484540F382800E980B9E1B99FE
:201DF00030F81940A64205DC0A9B3046C018A042C8BF01214FF6FF70A04205D0E868B0FBA5
:201E1000F2F0A042FFF440AF0029DCD0A969B1FBF2F04300B3FBF2F7002F08BF012104D0D1
:201E3000B1FBF2F04100B1FBF2F1B4FBF0F34343E01A81423FF628AF0520009006AF019751
:201E5000286904FB02031B9A152128460CF07EFD071C00F13781BDF81030BDF81820C3F3A9
:201E70000E0090420CD1BDF81A200BEB0900904206D19DF81C0020F07A0084283FF472AFC3
:201E90000BEB0900C3F30E010DF1220786B2234600973246284610F033F82349814204BF0C
:201EB0001998ADF82200002800F10381BDF82200BDF8101000287FF4BEAE2F6E47B11A9803
:201ED0000B460622009002212846B847BDF81010284611F0DBFC071C00F1F480EA6908F16A
:201EF00001001FFA80F80C9E46B90D98A969401CB1FBF2F1484340453FF62AAE0D98401CD7
:201F100080B20D900C9E002E7FF4E5AD286A0D9988423FF6F5ADDDF86C90002E7FF4DBAD32
:201F30004A457FF6D3AD01E0EED8FFFFDDF86C800C9E002E7FF4C7ADB8F1020FBFF4C3AD0B
:201F5000A86B0B9919F800004FEA880301EB4901414418418CB200F0070001287FF4AEADA5
:201F70000520009004AF0197286902FB04031B9A152128460CF0EAFC002800F19A8009A89D
:201F90000090BDF81010BDF812200DF12603284611F02EF8DDF86CA0071CD3464FD1BDF837
:201FB00026004FF6FF71814246D0EB69E868BDF82610B0FBF3F088423ED3A969B1FBF3F0C4
:201FD0004200B2FBF3F6002E08BF012604D0B1FBF3F04100B1FBF3F6BDF82610B1FBF0F24B
:201FF0004243891A8E4227D8052006AF0090BDF82610019728695A4603FB01032846152116
:202010000CF0A4FC071C5DD4BDF81010BDF81800C1F30E02904205D19DF81C0020F0780079
:20203000842806D0BDF82600844218BF4FF0010B0DE04FF0010A0AE04FF0010B05E023488F
:20205000B84204BF4FF0010A5F46BDF81010BDF81220BBF1000F3FF41CADBDF8240023460F
:202070000090284606F040FF07461948B84202DB1848B8420BDB2E6E0EB3BDF812000090A4
:20209000BDF8103002210A462846B04717E02F6E3FB11B980090BDF81030022106222846EE
:2020B000B847284621460EF0C9FBBDF81010002801D5074606E0284611F0E8FB0746002FA6
:2020D0007FF5E4AC38461DB0BDE8F08FEED8FFFFBDD8FFFFBAD8FFFF2DE9F04F0027ADF17C
:2020F000440D5FEA0108154606461C9C0F97DFF838A30E941C4603D1287930F07F0008D185
:202110004FF6FF70404540F094802879400880F090800E984FF00109C0F800902879CDF82C
:202130003C90C00832D2BB46CDF800B029886A88304641F400410FF0E3FE07465046B84235
:2021500073D1CDF800B029885A463046134641F400410FF021FF071C6BD1214630462A4655
:202170000DF11E0314F09CFE071C00F163820E98C0F80090326E002A5BD0688800902B8883
:202190009446594603223046E04752E006A8009029886A880DF11A03304610F029FF0746DB
:2021B0005046B84244D0002F00F14482BDF81A0084423ED1214630462A4607AB14F070FE70
:2021D000002800F11E820E98C0F80090BDF818700097BDF81C3029886A88304606F084FEE2
:2021F0000746CD48B84202DBCC48B84207DB326EDAB16888944600210222009012E0BDF835
:202210001C1030460EF01AFB002800F1FA812988304611F03BFB326E074632B1944600213C
:20223000062200912B883046E047002F01D501E200274FF6FF70404500F0FA81B8F1000F1A
:2022500000F0F6812988287948F4004B41F40042934540F0EB804FEAD831CB0302D1C10898
:2022700002D252E0C10850D230F07F0300F0E4818008C0F0DD810E980127076006AB009357
:202290006A88414630460DF11A0310F0B1FE5146814200F0D181002800F1B381BDF81A00BD
:2022B000844240F0C981306E38B1698800912B880322054600213046A84700970DA8FF25AC
:2022D00001900022F16930698DF8345004FB01031B1D172130460CF039FB002800F19181FB
:2022F00000970DA801909DF83470F269316907F0FD008DF8340004FB021330461B1D07212C
:2023100000220FF0E1FE074692E10BA800906A88C8F30E092346494630460FF0F1FD8245C4
:2023300004BF0020ADF82C00002800F16A810DF12E0000906A882346594630460FF0E0FDCD
:2023500007465046B84204BF0027ADF82E70002F00F170810121BDF82C000F9150BBBDF8EF
:202370002E00002800F06481376E37B1688800210322434600903046B847FC206F88ADF819
:20239000109000238DF814000F9DADF8127098464946009304AACDF804800DF13207029539
:2023B0003046039707F010F8002800F12A81BDF8321028E0BDF82E00002840F03981376EA1
:2023D00037B1688800210222434600903046B847F8206F88ADF810B000238DF814000F9D66
:2023F000ADF8127098465946009304AACDF804800CAF02953046039706F0E6FF002800F149
:202410000081BDF83010F069336900FB01324146521D04FB00335B1D401F0090304613F00B
:2024300099F8074600E1C046EED8FFFF012230F07F030F9200F0FC80820880F0F98010F0BE
:20245000440F00F0F580C00880F0A9800DF1220000906A885946002330460FF051FD824565
:2024700004BF0020ADF82200002800F1CA8009A8009029886A880023304641F400410FF04D
:202490003FFD0746BA4504BF0027ADF82470002F00F1D080BDF8240020B1BDF82200002868
:2024B00040F0C6800DF126000022C8F30E010090134630460FF024FD824504BF0020ADF8B8
:2024D0002200002800F19D800AA80090288800221346C0F30E0130460FF012FD07465046FE
:2024F000B84204BF0027ADF82470002F00F1A280F821BDF8223068888DF81410ADF81200FD
:2025100013B1BDF8263013B1BDF8283043B9BDF8243003BB23E0C046BDD8FFFFBAD8FFFF1C
:20253000BDF82430BBB92888214604AA0DF12A0340F40040ADF81000304614F0B1FC326E2E
:20255000074632B3688800902B880021154630460322A8471DE0BDF82830002B68D0BDF8DE
:202570002630002B64D0BDF82230002B60D1376EADF810B02FB100902B880021032230464A
:20259000B8472146304604AA0DF12A0314F088FC0746002F4ED40F980E99086048E006A8C4
:2025B00000906A880DF11A03304610F021FD07465046B8423BD0002F3CD4BDF81A0084421E
:2025D00036D1214630462A4608AB14F069FC002817D4BDF818000090BDF8203029886A8863
:2025F000304606F081FC07461B48B8421CDB1B48B84219DABDF8201030460EF01FF9002858
:2026100001D5074616E02988304611F03FF907460E990F980860306E30B1002100912B884A
:20263000062205463046A847002F01D502E000270F9808B938460CE0306E30B107460021E5
:202650002346052230460091B847214630460EF0F5F811B0BDE8F08FBDD8FFFFBAD8FFFF04
:202670002DE9F04F0546686B8A46ADF1740D14220021AE6B1090EC69119608A811F002FA2F
:2026900061080F91A88C1296002182458DF8201009D12A6A0AF101000027B0FBF2F1AF6278
:2026B0005143401AA884A14800241990A146CDF85C9021461A911B914E4614961596C846ED
:2026D000169647461896E2E09DF82070B8F1000F384640F04B82002848D0401E03D0401E1A
:2026F00000F0D180CDE00020BDF82470BDF82220BDF826300B9C8DF820001046A7B9A86B5C
:20271000149F00903E463946019742F400420296284603910DF13A0704970AF0FBFF5FEAA2
:20273000000800F123821EE01799009101930DF13A070297AA6B40F40043284608F078FCDA
:202750005FEA000800F11282129840880090BDF83A700197189E0296BDF82230A96B3246B9
:20277000284608F0BBFB9DF8207090E09DF83070002F00F08280012005278DF8200006AE9C
:2027900000971B9A0196E96928690B9409FB0103284615210CF0DAF8002825D4E869BDF823
:2027B0001A10A0F14D0252088A4209D80838891A4008B1FBF0F0401C82B2ADF8242003E0E5
:2027D0000020ADF8240002460EA8BDF822101B9B0090284641F400410FF092FB19990A3178
:2027F00081423ED0002801D5199015E0E8690090A96BBDF838200191296900FB02131B9A71
:20281000152128460CF0A2F85FEA000800F1AE8112980079410801D3199892E130F07F07F3
:2028300004BF1998083000F0A281810824BF1998C01D80F09C81C00824BF1998801D80F0D9
:2028500096811299BDF82400498888421CBF1998401E40F08C81BDF838001B9CADF826009C
:2028700081E7BDF8281028460DF0E8FF5FEA000800F17C810B9C002006E002208DF82000EE
:2028900007461B9C03E003208DF820000746B8F1000F40F06B81032F00F068810020012309
:2028B0008DF830000F9F139394FBF7F641E0284649460DF0C3FF5FEA000800F157814FF647
:2028D000FF70ADF83400BDF82470BDF81A1097B1E869A0F14D0252088A4205D808388A1A18
:2028F0004108104614F0AAFD1298BDF8342000EB4100028118E01198BDF8342000EB410046
:20291000A0F84D2010E07FB14FF6FF70B8420BD0F80BC30308D1ADF82270ADF828900120A2
:202930008DF830001B981390641C2FE0E4D8FFFF761C139800283FF4C7AEB8F1000F40F03E
:202950001581E969AA69B2FBF1F04000B0FBF1F7002F08BF012004D0B2FBF1F04000B0FBA7
:20297000F1F0B0427FF7B0AE0091686B019028690AFB02001B9A06FB0103142128460BF0BB
:20299000E5FFDDF83CB080460BFB06FB13980028CED0B8F1000FCBD10F99A4EB0B008142EB
:2029B000C6DDE869A969B1FBF0F35A00B2FBF0F7002F08BF012104D0B1FBF0F35900B1FB04
:2029D000F0F1591AA142B3DD109A6100A1EB4B019DF820C0575A5900B1FBF0F202B9012252
:2029F0000AFB03415FEA0C030A441FFA82F98AD05B1E69D05B1E95D1002F95D04FF6FF7110
:202A1000B94291D0F90BC9038ED0052106AB00911B9A0193296900FB0913284615210BF023
:202A300095FF002800F18D809DF81C3033F07F0314D1284649460DF001FF5FEA00083ED107
:202A5000BDF81A001B99009002223B46CDF8049008460290284608F041FA30E006A81B9A61
:202A700000903B46CDF804900DF1360011460290284608F0DDFA002863D4BDF81A000090C4
:202A9000DDF86C80BDF8360006A903223B4601902846CDF8088008F021FAE8690090696B11
:202AB0000191AA6929690AFB021106FB00134246142128460BF04AFF5FEA000856D4B8F110
:202AD000000F7FF531AF51E0BDF82210B9427FF42BAF052106AB00911B9A0193296909FBDC
:202AF0000013284615210BF031FF5FEA00083DD4E869BDF81A20A0F14D014908914288BFF8
:202B10001B9805D80838521A4008B2FBF0F0401CBDF8241081427FF407AF9DF81C0030F092
:202B30007F003FF4C4AE06A83B461B9A00900DAFCDF8049011462846029708F079FA0028E7
:202B500001D5804612E0E8690090696B0191AA6929690AFB02111B9A06FB00131421284667
:202B70000BF0F4FE5FEA00087FF5ADAE40461DB0BDE8F08F2DE9F04F06460C46ADF15C0DC7
:202B9000B76835680D92B7F1FF3F0C940DD067B1141C0FD1E869401F4100284608F090FD5B
:202BB000002800F1C680B76804E0141C08BF002000F04F82B089002FADF8200014BF7A1E33
:202BD0000022E9694B1FB7F1FF3FB2FBF3F294B208BF00274FF6FF73AA6B0E934FF00008A7
:202BF0000F920D9B1092ABB10C9B9BB9012200920AAB01932B69B6F9042000FB0133B82116
:202C10008DF8281028461B1D06210FF05DFA002800F18F80404614901590169013900E99DD
:202C30001291DFF804B30B910DE0EA69511FB7FBF1F048433B1A06BFBF1A7F1DFF1A641EBF
:202C5000B760A4B277610C98B84280F08681E869A0F14D014908A14208D80838611A4008C3
:202C7000B1FBF0F0401C1FFA80F801E0DDF858800E98804500F08B8012980E99884234D0B8
:202C9000BDF820200E9B284631460DF061F900284FD4BDF8201028460DF0D0FD002848D49E
:202CB000109840880090BDF820300193139A0292F38811462846022208F010F90E9BA3B1C8
:202CD0000D9B8BB914980090034601931A46029203970DF122010491F288B3892846314600
:202CF0000AF018FD002824D4B760B8F1000F0CD008A80090169BF1884246284641F4004114
:202D10000FF0FEF8002803D513E0B089ADF82000E8690090A96B0191BDF820302969B6F9F0
:202D3000042000FB0313162128460BF00FFE002801D583460AE00F980079410824BF584606
:202D5000083880F0868130F07F0301D1584659E1810824BF5846401E80F07B81C00803D2EF
:202D7000F3886FF30E0313B95846801E71E10F98408880451CBF5846093840F06A81A6F854
:202D900010807761CDF83880BDF82000F081B8F1000F26D0D5F81C90A9F14D004FEA500A57
:202DB000A24507D8A9F10801A4EB0A00490814F045FB00E02146109800EB41000089A245E1
:202DD000119007D8A9F10801A4EB0A00490814F035FB00E0214610980B9B00EB410003815D
:202DF00008E00F9800EB4400B0F84D1011910B9BA0F84D300C9B002B00F098800D9B002BF6
:202E100040F09480D5F81C900C98A9F1050A381A824540F28B80119A2846314623460DF04C
:202E3000B1FC0C990346B1FBFAF0002B00FB0AF0A1EB0000A9EB0000A0F1050940F08D8035
:202E5000FF21F088ADF81A40DDF858A08DF81C10C0F30E02ADF818205346CDF800A0C0F3FC
:202E70000E01CDF804A009AACDF808A02846039206AA06F0A9FA00286FD1E9692A69119B65
:202E9000BDF824C0A1EB0900401F009003FB012328465B1D01FB0C22521D514612F05AFB76
:202EB00000285AD1119928460DF0C8FC9DF81C10002852D121F0020001228DF81C0007A943
:202ED0000092BDF824300191E9692869B6F9042003FB01031B1D284607210FF0F5F800281B
:202EF0003BD1B8F1000F13D0E869A0F14D014908A14206D80838641A4108204614F09EFAD0
:202F10000C461099BDF8240001EB4401088106E00F98BDF8241000EB4400A0F84D100C9FCE
:202F3000B760776119E0C046ECD8FFFF119A2846314623460DF026FC83453FF476AE38B9A9
:202F5000119928460DF07AFC00283FF46EAE04E0ABF10B0181423FF468AEB8F1000F37D107
:202F7000002F33D10D98E0B1BDF82020169B284631460CF0EDFF002844D4BDF820102846D2
:202F90000DF05CFC5FEA000862D416990091BDF8200001900291F3880222284607F09EFF6B
:202FB00055E0A86BEA69FF214D304D3A10F06AFD4FF0FF31A86B0090169C01940294039158
:202FD0000DF122030493BDF8203038E03946F1E7BDF820202846314643460CF0B9FF002874
:202FF00010D4169CBDF8200000940DF1260301900F9A0293B6F90410F388284608F018F818
:20301000002801D5804623E0109840880090BDF8263001930F990294F3882246284607F0B4
:203030005DFFA6F810807761BDF82600F08100940194029403970DF122030493B389F28809
:20305000284631460AF066FB5FEA000800D4B760404617B0BDE8F08F2DE9F04F05462C683F
:203070000E46ADF1740D9046E1690E932046C918491F08F025FBCDF83480071C0C9600F116
:203090004382A36B1093119300260F96A8891896B2461390D446CDF864C0CDF868C0E16987
:2030B000CDF86CC0491FCDF854C00C9BCDF858C04FF6FF76CDF870C0B3FBF1F212961FFA49
:2030D00082FBB3FBF1F05246484317921E1A26E0BAF1000F14D0E169A1F14D00400858451E
:2030F00006D80839ABEB0000490814F0A7F900E059461198BDF8222000EB4100028106E062
:203110001098BDF8221000EB4B00A0F84D100F9E0BF101001FFA80FB46440F961C9E002F8F
:2031300040F0A8810E980F99884240F2A381E769A7F14D00400858450AD8A7F10801ABEB85
:2031500000004908B0FBF1F0401C1FFA80FA01E0DDF870A01298504500F0BF800F9F002F82
:203170003AD0071C12D1A06B0090159F01973B4602933A46039208A90491EA88AB892046CB
:2031900029460AF0C7FA002826D5ADE1139A204629463B460CF0DCFE002800F1A58118987C
:2031B000139F009009AB0197119A0293B5F90410EB88204607F03CFF002800F1958111998B
:2031D0004888BDF824700090199B01971A460293EB88204607F082FEC44FBAF1000F26D1E1
:2031F000E0690090A16B139B01912169B5F9042003FB0013162120460BF0A8FB002800F1D9
:2032100073811098007941083BD230F07F0300F07B8181083ED2C00846D2E8880B90C00B56
:20323000C30341D010984088824544D149E0288A82450DD00DF1260000901C9BE988524668
:20325000204641F400410EF05BFE002803D54BE1E889ADF82600E0690090A16BBDF82630D3
:2032700001912169B5F9042000FB0313162120460BF06CFB002800F1378110980079410805
:2032900002D33846083840E130F07F0300F03C81810802D33846401E37E1C00804D2E888BB
:2032B0000B90C00BC30302D13846801E2DE110984088824502D03846093826E1BDF826002B
:2032D000139013980F9FA5F810A00C9BE881D8196861E769CDF848A001E0E8880B900E993B
:2032F0000F9AB81B4FF0FF09401F891A884288BF081CBAF1000F804612D0A7F14D00400835
:20331000584507D8A7F10801ABEB0000490814F095F800E05946119800EB4100008904E047
:20333000109800EB4B00B0F84D0014900B98ADF81AB08DF81C90C0F30E01ADF8181026B955
:20335000A8EB070010F1050F7ED0149A204629465B460DF017FA002800F1C6801A9800908D
:20337000074601973B4602930DF122020392E88806AAC0F30E01204606F026F8071C79D1C2
:2033900096B1E06922690096149BBDF822C0B5F9041003FB00235B1D00FB0C22521D2046CD
:2033B00012F0D8F8071C65D1E06906EB0802411F914219D92269149BBDF822C0811BA1EB70
:2033D0000801491F0091B5F9041003FB0023F31800FB0C20434432185B1D42442046521D22
:2033F00012F0B8F8071C45D10F9F0D98CDF800803F180197BDF82230E1692069B5F904209F
:2034100003FB0100361807212046731D0EF05CFE07469DF81C006FBB20F002008DF81C00FE
:203430000127009707AE0196BDF82230E1692069B5F9042003FB01031B1D204607210EF0FF
:2034500043FE071C0FD015E0CDF8008001220F9B0D9F01960DF122000292DB1906AA0390E4
:20347000204605F0B1FF149920460DF0E7F9071C3FF42EAE13980F9E0C9BE881BAF1000FED
:2034900003EB0600686156462E8210D1A06B00901C9E01960296039608AB0493EA88AB8925
:2034B000294620460AF036F900282DD51CE0139A2046294633460CF04BFD002814D4DDF8B4
:2034D00070801398CDF800800AAB0190119A0293B5F90410EB88204607F0AAFDBDF8281050
:2034F0002E820028E98103D507460DE0ECD8FFFF119948880090BDF82860019642460292AC
:20351000EB88204607F0EAFC38461DB0BDE8F08F2DE9F04FDFF854B30F460446F80BADF103
:20353000140D80F00182D84DDFF86083B80F80F0AF81B80880F09C81DFF84883F80A80F0C0
:20355000FA80380B80F0D180380907D2F80FC0F01D8227F0804711F015FC17E217F083F901
:20357000814616F097F9002800F0B980082017F071F8002840F0B380802017F06BF8002838
:2035900040F0AD8004A80EF09FFA012803D10498002800F0A4805846C9300078002840F03F
:2035B0009E8000240126E0B216F0D8FD48B1837A3BB1867290F9090006FA00F0C0B214F053
:2035D000D7FB641C032CEED344460320207504F1B40017F042F9484617F096FAD0480168C6
:2035F000002398461A46036050F8081CCD4940F8088C04F1380017F03EF94046FDF73DFA8D
:203610002868006B8047A168401A010BE069C1F1FF3282422CBF08444FF0FF30E06194F807
:20363000200020B12069E169B1EBC02F26D916F041F9414600B13146081C1BD0D74840F6D9
:203650000901018043464380417B06F00F0221F00F010A434273017B03F00F0521F00F01F9
:2036700045EA01020273436016F0ECFE418811F4406FFBD084F820604346E36114F076F87D
:20369000C748454641460560022015F0D7FE022014F03CFE11200CF0A3FE207818B9606839
:2036B000483017F0F6F8BF48007810B90E200CF097FE94F8210020B184F82150052014F0F2
:2036D00025FEB948A0612575B4F98C00B4F98E10884214BF022007200FF0CEFC02E0484678
:2036F00017F012FA27F0080735E74446201D066814F022FB38B13046F6696FF480710022DB
:203710004FF00073B047E06850B12868006B8047E2686168801AC860000BC8600026E66071
:20373000A24904F13800002217F0A5F827F40067022020750FE717F096F8814616F0AAF868
:203750004446266F0028B04600F08980002E00F086809749042604F138000022267517F004
:203770008AF8484617F0D0F904F1B40017F075F82868006B8047E060D8F810006060D8F8CA
:203790001000416AC90803D3036A314600229847012012F0AFFA874816F054FE65684FF0D3
:2037B000010985F81590606810F00CFFD5F808A040F60A02D01F564600F1010C00E01E4676
:2037D000736833B119888A4203D0884218BF8C45F5D100217160727B09F00F0322F00F0295
:2037F00013437373D8F80C201288904225D06046904222D02C8E0CB3696305F13002518078
:2038100095F83C0001F00F0320F00F00034385F83C3095F83D0009F00F0420F00F0044EA5B
:20383000000385F83D307260707B01F00F0420F00F0044EA0001717300E0E1605046694632
:2038500015F0C8FF684616F0EDFD16F07DFC504616F0F8FD5146484615F0F0FD02E0484657
:2038700017F052F927F4806790E0C0469827002009F0F8F940467030006808B927F0020736
:2038900084E0C046902600208C0100109826002016F0E9FFAA468146DAF854000168042005
:2038B0008847D0B1207DC0B140460068A8B10646DAF800002569006B8047801B2061000B4E
:2038D0002061A84202D240194008206140F6C41181422CBFB0F5967F2161484617F014F9E0
:2038F00014F02AFA88B1E56920466FF4807100224FF00073A847404668300068002808BF17
:2039100047F0020701D011F03DFA2046A46900214FF080630A46A04727F0005736E0C046D7
:20393000141004409959010016F09DFF22490E6846B306F1280106C90A234FF0E0450B40D5
:20395000154008BF002B1DD106F1280191E8300006F1280393E8060006F12803AA43A143C3
:2039700083E8060017F0D0F8B16869B1002D08BF002C09D030692246B6F93C10B4682B4642
:20399000A04701E017F0C0F827F480471FB15846394616F086FF05B0BDE8F08FB03B002052
:2039B0000000046066F70100D5E30000F50D01008598010001010E0418270020F0B505AF90
:2039D000ADF1640D0A93099208910790386815900020386007983CC869463CC10DC881E8D6
:2039F0000D00079880690078000A21D30798806917901798C0681390179880681490179819
:203A100000798DF85800179840798DF859009DF858002E2807DC9DF859002E2803DB2E2064
:203A30008DF85A00FEE1179800798DF85A00F9E107988069D0F8C400139007988069001D7B
:203A5000149020208DF858007E208DF859002E208DF85A00E6E1BDF90C000A998842C0F244
:203A7000EA8108999DF8580091F90010884213DC08999DF8590091F9001088420CDB089870
:203A90009DF85810149A90F90000401A139932F81000091812910AE09DF858109DF85A0008
:203AB000149A401A139932F81000091812910898401C089012990A984A78BDF9081080183B
:203AD000814205DD12990A98497840180A90A9E102200B9000200C900020119000200D90B0
:203AF00095E10D9A3868BDF90E1080188142C0F294810698007830F0800051D100200F906C
:203B10001FE012980B9A1199105C884013F016FB0E900E98082803DD1198C0F108000E9001
:203B30000E990F9840180F9011980E9940181190119808280AD1002011900B98401C0B90D8
:203B5000FFE712980B9900788842DADC0020109020E012980B9A1199105C8840C04313F036
:203B7000EDFA0E900E98082803DD1198C0F108000E900E9910984018109011980E9940180B
:203B90001190119808283ED1002011900B98401C0B90FFE712980B9900788842D9DC32E0F4
:203BB00012980B99085C78B112980B99085CC0F303100F9012980B99085C00F00F001090B2
:203BD0000B98401C0B901EE00B981299401C085C000A0DD300200F9012990B98401C085C78
:203BF00000F07F00C00010900B98801C0B900AE00B981299401C085CC0000F9000201090F5
:203C10000B98801C0B900F98002800F081800D9A3868BDF90E108018814279DB0F98012860
:203C30003BDD12990C984978401C814235DD12990F9A0C9849788018814204DA12980C99DA
:203C50004078401A00E00F980E900D9A3868BDF90A108018814217DC3879A8B10798406966
:203C700004900C990A9A159B3D680E9E0C9CDDF828C00D9852185B1992191B180CEB040194
:203C9000521E68460DF036FE0E990F98401A0F900C980E9940180C902CE00C9A0A98BDF935
:203CB0000810801881421FDC0C9A0A98BDF90C108018814218DB0D9A3868BDF90A1080186F
:203CD000814211DC387978B10798079B0C9D0A993E68159A0D9C40689B8A4919921989B2AA
:203CF000121992B214F0E8FF0F98401E0F900C98401C0C9012980C994078884204D10D98CF
:203D1000401C0D9000200C900F9800287FF47FAF109800287BD00D9A3868BDF90E108018A0
:203D3000814274DB1098012839DD12990C984978401C814233DD1299109A0C9849788018E9
:203D5000814204DA12980C994078401A00E010980E900D9A3868BDF90A108018814215DCC8
:203D70000798006904900C990A9A159B3D680E9E0C9CDDF828C00D9852185B1992191B1887
:203D90000CEB0401521E68460DF0B4FD0E991098401A10900C980E9940180C902AE00C9A13
:203DB0000A98BDF90810801881421DDC0C9A0A98BDF90C108018814216DB0D9A3868BDF9CC
:203DD0000A10801881420FDC0798079B0C9D0A993E68159A0D9C40681B8A4919921989B253
:203DF000121992B214F068FF1098401E10900C98401C0C9012980C994078884204D10D984C
:203E1000401C0D9000200C901098002883D112980B99007888423FF764AE12990A984978D3
:203E300040180A90089890F9000020B10998411E099100B10FE619B0F0BD70472DE9F04FC4
:203E50000746B94CDFF8E4A2DFF8E482B94EDFF8E892DFF8E8B220780D46ADF14C0D07288C
:203E700000F27681DFE810F03001190189005D005600430008004601387814281BD16878B1
:203E9000032804DBC01EC0B213F042FD0EE0681C0368514601F11F02136043685360008995
:203EB000108101200870032013F032FD46463068012116F02DFE3878032809D12878C1499D
:203ED0000870C148464601210170306816F020FE3878122840F03C81BC48294662220DF0AB
:203EF0008FFE46463068012116F012FE30E13878122840F02D810620207001203070B3487E
:203F1000294662220DF07CFE46463068402116F0FFFD1DE13878022840F0EC8013F070FDBC
:203F300016E138780B2811D00A2840F01181C7487E78B0F90010C6482A4633460CF090F988
:203F5000864240F0058116F027FC01E1BF48B0F90010BF4811F018FA0F204946087016F0B2
:203F70001BFC307808B1062000E00220207046463068012116F0CCFDEAE03878132809D15D
:203F90007A78B448294614F03CF9B3480068022116F0BEFD3878122810D1062020708B48E0
:203FB000294662220DF02CFE01203070788813F0A3FF46463068402116F0AAFD3878102857
:203FD00005D1A6490E78002006B1012020703878042805D151460620242249310FF054F983
:203FF0003878052801D10BF023F938780C2809D129885846464601803068022116F088FD8B
:2040100016F0CAFB3878112812D12A7802F0070003280DDA5E46F01C0270464630680221E3
:2040300016F076FD3068012116F072FD16F0B4FB38780D2811D18A4E29460C2230460DF064
:20405000DFFD0020307346463068022116F060FD0BF0EEF80F204946087038780E2877D1C2
:204070002878042874DA5E46103606EB800630686946042200900F200FF006F900203060DB
:2040900046463068022116F043FD3068012116F03FFD3C20494608705AE03878022857D1E8
:2040B00016F0D4F802202070788815F0B8FF20B9788816F082FA00284AD005212046017016
:2040D000788813F019FF43E03878012840D1788815F0A5FF002620B178880FF05BFA00B9FB
:2040F00001266048067016F057FB16F0AFF8022020702DE016F004FD01905B48006815F0FF
:204110000DFF019816F000FD5048B0F90010504811F03AF900210B200A460FF0B5F83078DA
:2041300070B106200DE0C0460B3D00203F360020F83C0020870B00209A1100200036002011
:2041500002202070464630684FF4805116F0E0FC387809285ED178784FF0000929460822A2
:20417000401900F8019C2DA015F098F850B12EA02946082215F092F820B1788847F2C331EA
:20419000814247D12BA02946122215F087F850B95E46B11C0878464640F00F00087030686D
:2041B000022116F0B5FC02A8494640220FF06AFC7A7802A8294614F024F8012647F2C3388F
:2041D00011E0C046630A0020720E0020300A0020284616F045F832466844511CCEB2083057
:2041F00019A113F06BF97888804505D002A815F0B5F908B1632EEBDB154802A914224B46B8
:2042100008F030F911490028088003D40320207016F0C2FA13B0BDE8F08FC0462F70686FB4
:20423000746F732F00C046C02F636F6C6F72732F00C046C02F70686F746F732F2E43686930
:2042500070436F646500C046256400C0043D0020A0380020F90C0020D83C0020F110002041
:204270007B360020F2100020DC3C0020BFB501465148806804686FF00E020846801A07D02D
:20429000083803D0001F18BF4CA003D155A000E063A0E16C15F069FD2078A0B1401E0CD092
:2042B000401E04D0401E14D16AA56CA713E06068694615F0BFFB6BA50AE06068694615F0B8
:2042D000A9FB6AA504E06068694615F093FB68A5876807B967A76AA000212A4615F045FD81
:2042F000636873A029463A4615F03FFDA26877A0294615F03AFDE2687AA0294615F035FDCA
:204310002169226B7DA015F030FD6169626B82A015F02BFDA169A26B86A015F026FDE16992
:20433000E26B8BA015F021FD216A226C8FA015F01CFD616A626C94A015F017FDA16AA26C6D
:2043500099A015F012FDE16AE26C9FA015F00DFD216DA5A015F009FDCB4CD4F8041DA6A0F1
:2043700015F003FD94F8281DA7A015F0FEFC94F8291DA9A015F0F9FCB4F82A1DAAA015F0BA
:20439000F4FCD4F82C1DACA015F0EFFCD4F8301DADA015F0EAFCD4F8341DAFA015F0E5FC29
:2043B000D4F8381DB0A015F0E0FCD4F83C1DB2A015F0DBFC0090BFBD44010020426F67754A
:2043D0007320457863657074696F6E2072657475726E2076616C75653A20253038782E0AF7
:2043F00000C046C0457863657074696F6E206F6363757272656420696E206261636B677240
:204410006F756E6420746872656164206174205043203D203078253038782E0A00C046C06E
:20443000457863657074696F6E206F6363757272656420696E2049535220746872656164A9
:20445000206174205043203D203078253038782E0A00C0464D61696E00C046C06D61696E4C
:20447000282900C05461736B00C046C0537769004877690028756E6E616D65642900C04628
:20449000436F72652025643A20457863657074696F6E206F6363757272656420696E2054EF
:2044B0006872656164547970655F25732E0A00C02573206E616D653A2025732C2068616E89
:2044D000646C653A20307825782E0A00257320737461636B20626173653A20307825782E6A
:2044F0000A00C046257320737461636B2073697A653A20307825782E0A00C0465230203D37
:20451000203078253038782020523820203D203078253038780A00C05231203D2030782513
:204530003038782020523920203D203078253038780A00C05232203D2030782530387820DE
:2045500020523130203D203078253038780A00C05233203D203078253038782020523131E1
:20457000203D203078253038780A00C05234203D203078253038782020523132203D2030E5
:2045900078253038780A00C05235203D20307825303878202053502852313329203D20307C
:2045B00078253038780A00C05236203D2030782530387820204C522852313429203D20305F
:2045D00078253038780A00C05237203D20307825303878202050432852313529203D203048
:2045F00078253038780A00C0505352203D203078253038780A00C04649435352203D203057
:2046100078253038780A00C04D4D465352203D203078253032780A0042465352203D2030B6
:2046300078253032780A00C055465352203D203078253034780A00C048465352203D203019
:2046500078253038780A00C044465352203D203078253038780A00C04D4D4152203D203006
:2046700078253038780A00C042464152203D203078253038780A00C041465352203D2030FB
:2046900078253038780A00C000E000E02DE9F04FADF19C0D209298461F91BC4A1E900CCA9D
:2046B0001BA880E80C00DFF8E8928A4604AA48460FF0C2FB0598082200235146103823901E
:2046D000484607F0CFFE01461023249017AA484615F0DCFB1028C0F04F811E9810B9ADA09B
:2046F00015F076FA9DF85C00054600F00F00012802D0B8A015F06CFABDF85E3018B2BDF87A
:20471000602021901E982099B0F90C000FFA82FB8842C0F238811E98B0F9081018B2209B7D
:20473000C018401E814200F32E811E98B0F90E004045C0F2288110B21E9AB2F90A204044AE
:20475000401E824200F31F811846814201DC002605E01E98B0F908001946401A06B22199F9
:20477000184640181E99B1F90C10401E814207DA1E98B0F90C001946401A0FFA80F903E06B
:204790002198401E0FFA80F91E98B0F90E0008EB0B01491E884204DAA0EB0800401C0FFAFD
:2047B00080FB15F0F00F62D116F0AAF91D9021986843C01D811000EB5170C710384614F00A
:2047D0001FFA22901D9816F09FF91E98B0F90A00404511DDA0EB080002B224996C480123F3
:2047F00014467A4309F018F8ABEB04000FFA80FB08EB04000FFA80F8ABF101000FFA80FBD2
:204810000BF1010000B2002800F097802198229A6843C01D811000EB5170C41024995C483B
:20483000234615F033FB844200F39580A9EB0600401C80B2009005FB06F0811000EB517013
:204850002299019501EBE00102911BA803901E98209940681FFA88F206F00703891989B2BA
:2048700012F062F908F101000FFA80F8C4E716F047F91D90262014F0C3F922901D9816F03F
:2048900043F94FF000094C464E46CA46C5F303102590A14510D12398262802D34FF02609BB
:2048B00001E05FFA80F924993948229A4B4615F0EDFA002481454EDC2598082811D00728AD
:2048D00007D02298275C641C3D11E4B207F00F070EE02298275C641C7D10E4B207F0010776
:2048F00006E02299655C641CE0B2475C401CC4B20DEB8700B0F86C706D1CEDB26D1EEDB26A
:20491000681CC3B213B9D345C3DC16E01E982099406808EB0A023B46891992B289B214F059
:20493000CBF92198761CB6B2B042E7D10AF1010000261FFA80FAD345E0D116F0E1F81D903C
:20495000229815F0EBFA1D9816F0DEF82499104810F01AFD17E024990D4810F015FD1F9814
:204970000CF03FFA16F0CCF81D90229815F0D6FA1D9816F0C9F806E02499484610F004FD3E
:2049900050460CF02EFA27B0BDE8F08FA8F70100A0380020417373657274696F6E2066611B
:2049B000696C65642C2028636F6E74657874292C2066696C65202E2E2F75692F6772617059
:2049D000686963732E632C206C696E65203236320A00C046417373657274696F6E20666132
:2049F000696C65642C2028286250502026203078306629203D3D2031292C2066696C65207E
:204A10002E2E2F75692F67726170686963732E632C206C696E65203236390A002DE9F04FF8
:204A300009AF0546ADF13C0D0B912421B2FBF1F08DF828000D9392FBF1F04843101A062176
:204A500090FBF1F08DF8270092FBF1F04843101A8DF82600B6483E7800680C9238B1B549BF
:204A7000814204D818B1B449814200F25881284615F0A3FD002800F0528140F2E738A845F7
:204A900000F04D810B98400880F049810B98DFF8CCB2C0092DD3A94C2078B04229DA26704A
:204AB000A74805800B9FDFF8A0A20D99A5480C2207F007070770504613F0A3FB4FF00009F3
:204AD000A2498AF80C9022780878904211DA0E709F4805809F480D9907709F4F0C2238465E
:204AF00013F08FFB5C4687F80C902068042116F00FF8DFF87082DFF878A2DFF878920027E0
:204B10005C46974830F8170040F2E73181420BD040460DEB0701C05D91F82610884239DC9C
:204B30009148C05DB04235DA8D48904920F817500DEB070090F82600C85518F8071081428D
:204B500001DD002000E030468749C8553AF8170040F2E73181420BD00DEB070118F80700BC
:204B700091F82610884215DC19F80700B04211DA0DEB0700804990F82600C8557F482AF83A
:204B90001750007809F807600D2803D12068042115F0BEFF7F1CFFB2032FB2DBDFF8E08103
:204BB00040F28D20A8421CDD284614F093FE002840F0B58041460888A84200F0B0807149B8
:204BD000284615F037FA7049704A0888401C80B208801188814204DA10802068042115F08C
:204BF00097FF6B49684616220DF00AF80DF1160000210E220EF046FF2A460DF1160049A160
:204C100012F05CFC0DF1160014F0A8FC002790B9414601F1A4021088401C1080B1F8A00012
:204C3000A84202DA681CA1F8A0002068022115F06FFF012705E00DF116006946162212F0B9
:204C50005DFC9DF802000B99814239D0084601278DF80200C00911D3414601F1A702107890
:204C7000401CC0B2107091F8A920824206DA521C81F8A9202068022115F04AFF0B9830F074
:204C90007F0011D0414601F1A6021078401CC0B2107091F8A820824206DA521C81F8A82009
:204CB0002068022115F034FF9DF8020040B1BDF8060028B10B990C9A0D9B284600F0B2FCE7
:204CD000ADF800500DF103010DF12600032214F0FDFB60B19DF826008DF803009DF8270078
:204CF0008DF804009DF8280001278DF805000D990DF109000C2214F0D1FA08B94FB90EE04B
:204D10000D990DF109000C2213F07BFA00208DF815000DF116006946162213F085FE0FB036
:204D3000BDE8F08F2F6261646765732F256400C0FC10002000350C0060C51B0082100020D3
:204D50008010002083100020A01000207E1000207C1000207F10002093100020F83C0020F0
:204D7000A211002004360020B03C0020AC3600209C110020AC3C0020441900207C110020E9
:204D900000360020E40A00207A10002078100020EEF301002DE9F04F09AFADF13C0D0890DF
:204DB0000A92388809911E46ADF81800101C08BF002000F06C81017800274FF0010B401C95
:204DD0004FF0FF39B846DA460A9058E1252940F04D810178401C0A902D2918BFADF8068048
:204DF00004D10178ADF806B0401C0A9030291CBF4246434604D10178401C5A465B460A903A
:204E10002A29CDF800804D4617D1049330680A9BCDF80890C01C20F00300001D306050F85A
:204E3000044C1978002C009403F101000A9018D5ADF806A06442009413E044460AE06000F9
:204E500000EBC4004018A0F130040A9801780094401C0A90302901DB3A29F0DBCDF8089011
:204E700004932E2929D10178401C2A290A9011D13168CDF80880C91C21F00301091D3160FF
:204E900051F8045C002D48BF454601782B46401C0A9011E0454643460AE0680000EBC500B3
:204EB0004018A0F130050A9801782B46401C0A90302901DB3A29F0DB02930AB12246049291
:204ED0006C2904D04C2918BFADF8048004D10178ADF804A0401C0A900BA8CDF80C800FAB99
:204EF00007906429059379D0692977D0BDF818C0752965D0782961D06F295DD0702946D01E
:204F1000632936D073291AD00A98401E0A900998012812D961490C68B5F1FF3F03D0A8425B
:204F300088BF6D1C00D8099D029508A80AA932466B46A0473F18039865E0454617E03068B8
:204F5000C01C20F00300001D306050F8040CBCF1010F014608B94FA00146079115F080F93C
:204F70000390B5F1FF3F4FD0A8424DD9039528464AE03068C01C20F00300001D306010F80F
:204F9000040C8DF82C005D46039558463CE0082035680490E81C20F00300001D306050F8E6
:204FB000041C082210230FA80FF09EFA401E079040210170079823E0082302E0102300E08D
:204FD0000A233068C01C20F00300001D306050F8041CAA42BCBF2A1C04920DE03068C01C54
:204FF00020F00300001D306050F8041CAA42BCBF2A1C04926FF009030FA80FF075FA07900F
:205010000599081A0390009C241ABDF8065000945DB906E008A8202109AA13F0E9FF7F1C8E
:20503000009C641E0094F5D50398401EB0F1FF3F03900FD1BDF8060001281CD10098401ED2
:20505000009018D408A8202109AA13F0D1FF00987F1CF4E70798017809AA08A813F0C8FFFA
:205070000798401C079003987F1CDEE708A809AA13F0BEFF7F1C0A980178401C0A9000299B
:205090007FF4A4AE089808B14146017038460FB0BDE8F08F286E756C6C2900C064F8010060
:2050B0002DE9F04F9846ADF12C0D0F460792AC4A06900CCA04A981E80C0010B977A014F080
:2050D00087FD17B985A014F083FD3C7804F00F00012802D090A014F07BFD7888069A01B212
:2050F000079B0891B988B2F90C200FFA81FA9A42C0F2D080069AB2F9082000B2C018401E90
:20511000824200F3C7800698B0F90E004045C0F2C18008B20699B1F90A104044401E8142F2
:2051300000F3B8801846824201DC002605E00698B0F908001946401A06B208991846401813
:205150000699B1F90C10401E814207DA0698B0F90C001946401A00B2099003E00898401EA0
:2051700000B209900698B0F90E0008EB0A01491E884204DAA0EB0800401C0FFA80FAFD689B
:2051900014F0F00F49D10698B0F90A00404513DDA0EB080001B208986043C01D821000EB39
:2051B0005270C01001FB0055AAEB01000FFA80FA08EB01000FFA80F8AAF101000FFA80FA4F
:2051D0000AF1010000B2002864D00998801B401C80B2009004FB06F00194811000EB517094
:2051F00005EBE000029004A803900698079940681FFA88F206F00703891989B211F094FC17
:2052100008986043C01D811000EB517005EBE00508F101000FFA80F8CEE7A946C4F3031B58
:2052300000252E46BBF1080F0ED0BBF1070F05D019F8017B3C1107F00F0709E019F8017B30
:205250007C1007F0010703E019F8014B19F8017B0DEB8700078A641CE4B2641EE4B2601C2C
:20527000C0B210B9B245DDDC14E006980799406808EB06023B46491992B289B213F01CFDE0
:2052900008986D1CADB2A842E7D1761C0025B6B2B245E2D10BB0BDE8F08FC046417373659A
:2052B0007274696F6E206661696C65642C2028636F6E74657874292C2066696C65202E2E23
:2052D0002F75692F67726170686963732E632C206C696E652033350A00C046C041737365C8
:2052F0007274696F6E206661696C65642C20286269746D6170292C2066696C65202E2E2F3C
:2053100075692F67726170686963732E632C206C696E652033360A00417373657274696FBD
:205330006E206661696C65642C2028286250502026203078306629203D3D2031292C206639
:20535000696C65202E2E2F75692F67726170686963732E632C206C696E652034330A00C024
:20537000A0F701002DE9F04FA448A54DDFF894A20778ADF12C0D7FB195F8257067B95346E4
:2053900095F8262019788A4206D10324491C91FBF4F26243891A19700024DFF870B29D4F1E
:2053B000DFF86492DFF8708209947720ADF81000212000EB4410ADF81200BDF910005630DB
:2053D000ADF81400BDF912001E30ADF816008B4806781EB19AF80000A04214D005F13C0089
:2053F000065D26B9484604A90CF0F2F8A4E0610001EBC40159440A6806A802604A68426031
:205410000989018107E082490A6806A802604A68426009890181BDF81020BDF81230214689
:2054300006A808F0DDFE95F8250000283AD195F82600844236D1BDF91410BDF91230891CFF
:205450000AB2BDF91610C91A01EBD17103EB6103B9884846A3EB61031BB23946FFF720FE20
:20547000BDF9126012F080FDAA6ABDF82010891A09180A2000900191BDF820000290798804
:20549000BDF914004018001D81B2BDF916001E23801B00EBD07006EB6006761F4846B2B2D9
:2054B00011F022FA55480078002845D09AF80010A14216D000283FD0BDF91600401E80B26F
:2054D0000090BDF91000401C81B2BDF91200401C82B2BDF91400401E83B2484613F049FD4B
:2054F0002AE0BDF91410BDF91230891C0AB2BDF91610C91A01EBD17103EB6103B8F804105C
:205510004846A3EB61031BB24146FFF7C9FD4349484614F003FCBDF91200801D0090099838
:205530003F490190BDF91430B8F802000C221B181B1D4846FEF742FA641CE4B2032CFFF604
:2055500034AF95F82500002854D195F82600032850D1BDF91400C01CADF810003120ADF809
:205570001200BDF910005630ADF81400BDF912001E30ADF81600BDF81020BDF812305C46B5
:20559000032104F11E0008F02BFEBDF91010BDF914207888521A02EBD27201EB6201A1EB6B
:2055B00060010AB2BDF916104846891C0BB23946FFF776FDBDF9106012F0D6FCAA6AE18C8F
:2055D000891A0918082000900191E08C0290BDF91400BA88801B00EBD07006EB6006BDF9D0
:2055F00016003023183EB1B28018001D82B2484611F07AF90BB0BDE8F08FC046D2110020A6
:205610000036002081110020483B002040360020783C002020F6010030F60100E8DF01005F
:20563000861000202DE9F04F0F46154606462421ADF1340DB5FBF1F08DF82C0095FBF1F07C
:205650004843291A0620834691FBF0F195FBFBF08DF82B1000FB0BF0281A8DF82A008E4818
:2056700000680C9330B18D49814203D810B18C4981420FD8304614F0A0FF18B9304614F01A
:20569000CEFC38B140F2E730B04203D042F20F70B04201D10020F6E0824901A816220CF024
:2056B000AFFA0DF11A0000210E220EF0EBF932460DF11A0075A111F001FF0DF11A0013F024
:2056D0004DFFDFF8E4810024F8B90C9B0094304639462A46FFF7A2F9304614F0A0FC40B91D
:2056F0004546B5F8A000B04215DA701CA5F8A00011E04546B5F8A200A6F57A7188420ADA19
:20571000A6F2E730A5F8A20005E00DF11A0001A9162211F0F3FEBDF80A00DFF898910028D3
:205730007ED162490F200870304614F078FCDFF880A1012480B955462888401C80B20A2869
:20575000288002D1032012F0CFFF288828281AD1042012F0C9FF16E0454605F18A01088860
:20577000401C088012F088FEB5F88A000A2802D1022012F0BDFC5546AD1C2888282802D15D
:20579000584612F0B5FCF80921D3304614F047FC78B9454605F19E010878401C087095F8C4
:2057B000A90095F89D10884211DA401C85F8A9000DE0454605F19E010878401CC0B20870EC
:2057D00095F8AB10814202DA491C85F8AB1037F07F0020D0304614F022FC70B9454605F15D
:2057F0009C010878401CC0B2087095F8A810814211DA491C85F8A8100DE0454605F19F019B
:205810000878401CC0B2087095F8AA10814202DA491C85F8AA1048460068022115F078F9A1
:20583000BDF80A00401CADF80A009DF80600874206D0484600688DF80670022115F068F9DA
:20585000ADF804609DF82A008DF807009DF82B000C998DF808009DF82C000C228DF8090075
:205870000DF10D0012F0CDFC002001A916228DF819000DF11A0013F0D7F84846006802219F
:2058900015F046F920460DB0BDE8F08F2F6261646765732F256400C0FC10002000350C00F3
:2058B00060C51B0004F40100003600209A11002088360020F83C00202DE9FE4F06248346F6
:2058D0008DF8014013F0CCFDDFF860A2DFF86092DFF8648200284AD112F01CFE4FF416719E
:2058F0000FF099FC0D4612F03FFB5146401900F596700863002681F82C6012F00BFE0325C1
:2059100090FBF5F16943401A8DF8000012F002FE90FBF5F16943401A8DF8020012F0FAFD82
:2059300090FBF5F16943401A19D112F0F3FD90FBF5F16943401A8DF8030012F0EBFD4008D3
:2059500005D29DF80000C01C8DF8010007E012F0E1FD90FBF4F16143401A8DF80100484620
:205970006FA10C2212F04DFC4C4626737CE012F0D1FD10F0070F09D112F0CCFD032290FBCC
:20599000F2F15143401A8DF8000008E069480078032290FBF2F15143401A8DF8000012F088
:2059B000B9FD10F0030F18D112F0B4FD9DF800204146895C491C90FBF1F24A43801A8DF8D3
:2059D000020012F0A7FD9DF80210491C90FBF1F24A43801A8DF8030007E09DF800004146E3
:2059F000085C8DF802008DF803009DF8020088B312F090FD07469DF80200401C97FBF0F110
:205A10004143781A26D012F085FD9DF80210491C90FBF1F24A43801A8DF8030012F07AFD44
:205A300040080ED29DF80000C01C8DF801009DF800004146085C01280ED100208DF8030007
:205A50000AE012F067FD90FBF4F16143401A8DF8010001E08DF80140384948460C2212F00C
:205A7000D0FB4C460020207312F07EFA51463C308863002481F834409DF80200062802DBEB
:205A900005208DF802009DF80300062802DB05208DF8030041469DF800009DF80220085CC3
:205AB000904204DA9DF80000085C8DF80200244E244D12F02FFD0DEB0401897806EB810124
:205AD0004A8890FBF2F15143401A0DEB0401897836F8211008180DEB040108710DEB040099
:205AF0008078285C0DEB0401641CE4B2022C8871DFDB12F00FFD4FF4C87290FBF2F1514399
:205B1000401A00F516706946ADF808000A68584602604A68426009890181BDE8FE8FC04632
:205B30007668616E646C657200C046C000360020861000207F100020043600209310002063
:205B5000A8F30100FEF701002DE9F04F044609AF9A4691468846ADF1140D019414F083FEEE
:205B700098490D680290A54208BF4D68974C6FF0010B35B105F1800014F02BFC002840F09D
:205B90000F8113F049FC061C00F0158104F1B40014F063FEC6F80C80B4F98C0099F804301F
:205BB000401C86F83E306FF31F30A4F88C00C6F808A0B4F88C00019AB0878348326197E867
:205BD0000C004FF0000B2021DC4606F118071940104087E8030006F1200383E80018C6F870
:205BF00034B062463263D9F80800B06386F83F20D9F80070009207B1776398F80C0000F0BA
:205C10000F00022804BFD8F808003063082740464368002B18BF002F40F0BE8000886FF324
:205C30000900B0F5305F18BF022006D196F83F0040F0100086F83F00082006F1180191E8CC
:205C5000800106F1180342EA080240EA070183E80600D4F8F8000199814207D194F804013E
:205C7000410824BF00F0FE0084F80401002D70D0039504F1700101980D68884612F07BFFB6
:205C9000B1465F465FEA000A0FD1D8F800202AB1D4F8801030460DF03DFD18B9BAF1000FC6
:205CB00003D103E001275D4630E0554645B12A68304629460DF02EFD38BB002A1546F6D1D3
:205CD000039831460FF02CF8051C02D0A9451AD1E5B9D9F80C10D8F80450087B00F00F0082
:205CF000022813D1087BC01140080FD2002D4AD1D4F8800050B1D4F8801030463A460DF025
:205D100009FD18B93FE0082700E00227BB46BBF1010F04D104F17000494613F006FDBBF10D
:205D3000020F0BD12F682A6804F170001FB9494613F0EAFC02E0494613F0D5FCBBF1080F80
:205D500004D196F83E10284613F0C2FE3BF0080004D104F17000314613F0D6FC1BF1030F7A
:205D700011D096F83F00B6F93CB0009940F0800086F83F00019F87F8A410206F86421AD1AF
:205D90000FF000F817E0B4F98C0000F6FF706FF31F30A4F88C0003E07F1E1846FFB237E7E1
:205DB00094F8040140F0040084F8040101986FF0020BC4F8F800029814F0A6FE584605B03F
:205DD000BDE8F08F68270020FFEFFF9F902600202DE9F04F954EADF1740D1B9030784FF095
:205DF000FF370528A0F1050801DA4FF00008904916A812220BF004FF8E4D8F49284613F083
:205E10008DFF7F1C08F1060924240FF2A81BB8450FDCB9450DDB59462846224614F0B5FA41
:205E300030783324874204D11B9859460E2212F0E8F90025B2467F1CB84517DCB94515DBBA
:205E5000284600EBC0000DEB00067A4822465836314614F09AFA9AF800000F34E4B2874220
:205E700004D11B983146402212F0CBF9734855A113AA12F07FFA6E4624E02846B11C0822E5
:205E900000EBC0006844583013F008FAD0B9B11C4DA0102213F002FAA0B17F1CB84511DCC4
:205EB000B9450FDB9AF80000874204D11B98B11C402212F0A6F95F48B11C224614F065FAF8
:205ED0000F34E4B213A831460DF07CFF061CD4D113A812F075FF6D1CEDB2022DABDB5848BA
:205EF000077050461B9900784022A0EB0800C0EB00102430C4B2584613F0D0F9002850D02D
:205F10001B9936A0402213F0C9F9002843D01B9935A64022304613F0C1F9002835D0494D9E
:205F300030460822294613F0B9F960B9464805F10801102213F0B2F928B93E4822462DA16A
:205F500014F01AFA32E041490878C0B1401E10D0401E2BD1083528782E2807D0212805D0CC
:205F70003448224625A114F007FA1FE00020087005E03048224623A114F0FEF916E02D48DC
:205F9000224622A114F0F8F910E02A48224621A114F0F2F90AE02748224620A114F0ECF9EB
:205FB00004E0244822461FA114F0E6F91DB0BDE8F08FC0462F636F6E662F68616E646C650F
:205FD00000C046C02F00C0462F636F6C6F72732F2E63757272656E7400C046C02F636F6C62
:205FF0006F72732F00C046C02F70686F746F732F00C046C0696E207573653A0072656E6163
:206010006D653A0064656C6574653A0020206C6F61643A002020206469723A002073746F4E
:2060300072653A002020656469743A008111002058F40100483B002078E10100A03800202B
:2060500083110020B80C00206A360020801100202DE9F84F8D4F8C4938784FF000080870AA
:206070008B4C87F800808B4E84F8008030680122082111F045FE30680921012211F040FE19
:2060900030680A21012211F03BFE30680B21012211F036FE30680C21012211F031FE012576
:2060B000A946BB46A24605F10C00C0B2009014F037F800283FD09BF8000010F0380F3FD1A0
:2060D000E8008BF8000030680821424611F018FE30680921424611F013FE30680A2142463E
:2060F00011F00EFE30680B21424611F009FE30680C21424611F004FE4C46E01DC1B2306845
:206110004A4611F0FDFD009814F00AF840B1387810F0070F01D08AF80090387820433870F1
:20613000E01DC1B230460068424611F0E9FD641CE4B2062CE1DB6D1CEDB2052DB3DB02E0C4
:20615000484654462070387810F0380F02D010F0070F01D1404638704F4C2078C0090ED3BB
:2061700050460078002840F08880474839780078084300F082802078C00980F082803E7823
:20619000002E7ED040480078B0427AD1267013F0ADF858B93878093817D0401E12D0401E71
:2061B00016D0401E19D10A20207016E03B48007898B9387809380ED0401E09D0401E04D06D
:2061D000401E0AD10B20207007E00C20207004E00920207001E00A2020703149334D0B7863
:2061F0000F2B40D12F4A304816780A2E2DDB0F2B39D10A2E37D12378222B02D04046107041
:2062100031E0FF220A706422027001F10E00026841F288338E31D21802600A68D2180A60A1
:206230004268D21842604A68D2184A608268D21882608868C01888602868022114F068FC51
:206250002868042114F064FC0DE01178184B595C2378994202D04046107004E01178491C67
:20627000117005210170207840F04000207028684FF0804114F04CFC03E0207800F0BF0058
:206290002070BDE8F88FC046AC110020AB110020083D0020C43C0020A8110020D011002014
:2062B00002360020AA1100209A110020F83C0020D41000202DE9F84F8E488D4C028820883A
:2062D000DFF834B2401C90FBF2F15143401A8749DFF8288208808E48894F0078C01E00F06C
:2062F000CE80401E00F09880401E5BD0401E1ED0401E40F0E7800020DC46444603460546B0
:2063100005EB450505EB0C021370537093700A8802EB420212191678ED192E7056786E7020
:206330009278401CC0B20628AA70E8DBCAE012F0F1F8DFF8E0910622DC46A64690FBF2F1E9
:206350005143401AC3B200200246054605EB450505EB0C010A704A708A7009F106010C782D
:20637000BEF80010834291FBF4F606FB04F6A1EB0601C9B204D0ED192A706A70AA700CE0AF
:2063900001EB410141440E78054605EB4505ED192E704E786E708978A970401CC0B20628D1
:2063B000D3DB8FE0DFF85CA1A146002006224446DC46BE468846B9F800309AF800101B1879
:2063D00093FBF2F393FBF1F54D435B1B03EB43031B191F78054605EB450505EB0C06377093
:2063F0005F7877709B78B370B8F800301B1893FBF2F393FBF1F64E439B1B03EB43031B19EF
:206410001E7875442E705E786E709978401CC0B20628A970CFDB55E0A14600200623DC4674
:206430008E464446B9F80010091A891D91FBF3F25A43891A01EB410109190E78024602EBA8
:20645000420202EB0C052E704E786E708978A970BEF80010091A891D91FBF3F55D43491B87
:2064700001EB410109190D78D21915704D7855708978401CC0B206289170D3DB22E0A646A3
:206490000020DC464446BEF8002002EB420212191678034603EB430303EB0C052E70567878
:2064B0006E709278AA700A8802EB420212191578DB191D7055785D709278401CC0B206282E
:2064D0009A70E0DB104C5946122220460BF098FB0CF074F90020062122460FF077FE0B48E5
:2064F0000068012114F014FBBDE8F88FFC3C0020823C0020FE3C0020003C00201510002092
:20651000EC3B0020B5F70100D83B0020C83C002014100020B0F701002DE9F04F0746164636
:206530000020ADF17C0D1B938BA4009094E80C0038460CF01AFD88460FF22C290CD988A449
:2065500094E80C0038460CF0CDFC05D999E80C000CF0C8FC02D109E094E880014146384677
:206570006A460EF09BFF0098401E0090307BB5680024A0F14101B5F1FF3F1D9108BF012400
:20659000A24641280CBF6AA06EA01E9030208DF8080099E80C00414638460CF0A3FC38BF08
:2065B00088F0004899E80C0041460CF09BFC0CD0384601AA0EF072FF019A41463846C2F19D
:2065D000010209F0FBF988460746384610F0B0F983460DF109010FF05FFC0446584612F064
:2065F000F8FA0B4602464146384602F019F90FF2801B0DEB04021C940746BAF1000F02F1B3
:20661000090453D16D1C15D09BE80C0007F084F98846814610F08CF91E99095C04F8011B7A
:2066300012F0D7FA0B4602464146484602F0F8F86D1EE9D11D9F641E002F14BF41A53CA59B
:206650002178284613F00CFD401B082833DB27464FF000081D987F1E002814BF39A534A5C6
:206670003978284613F0FCFC401B401C1028B4BF295C3021102839701DDB87F80080E9E710
:206690009BE80C00384607F047F90D46074610F04FF91E99095C04F8011B12F09AFA0B46A3
:2066B00002462946384602F0BBF8074699E80C000CF018FCE4D10025307B2570412814BFB0
:2066D000702150211B9A00980FF0B6FCB068B0F1FF3F05D10DF1090013F0C2FD401EB060A6
:2066F0001C991B9B0DF109040246204610F0C4FF3168B0682A4601F00801084318BF012243
:206710001C991B9B20460DF0B7FE307B412814BF782158211B980268531E03601170016812
:2067300030274A1E02601FB00F70BDE8F08FC046303132333435363738394142434445460E
:2067500000C046C03031323334353637383961626364656600C046C0000000000000F07FCC
:20677000000000000000F0FF000000000000000000000000000030402DE9F04FDFF83CB290
:20679000DFF830A2DFF838924FF00A0815460F460024ADF11C0D06904646ADF8087007F17C
