:2000000000400020D1B2000001C9011001C9011001C9011001C9011001C9011001C90110DB
:1C00200001C9011001C9011001C9011001C9011001C9011001C901103FC9011089
:20003C002DE9F04F8046ADF5FE7DADF1600DA098D8F800408A90D8F800001F4616460D461B
:20005C000CF034FE89970146889600229295204609198C9281428B9140F20285A94A949231
:20007C008C9F90979392394686919191879195914FF0FF368396869981910F468DF81072DD
:20009C0082970778252F08BF0A1C14D0002F00F0E784D8F80010899A0078491CC8F800104D
:2000BC0088999047D8F800008C990778491C252F8C91EBD1819AD8F80030929D41465B1CDE
:2000DC00C8F8003011E042F010020AE042F0010207E042F0020204E042F0080201E042F070
:2000FC00040281920868401C0860086800782038F5D0C01EF0D00838EBD0801EE6D0C01EC7
:20011C00E1D00C46206801782A2917D0302901AA0ADB3A2908DA0146401C2060097802F8B9
:20013C00011B01783029F4DA879810709DF80470B7B101A80AF0EEFD829011E0ED1C25F028
:20015C0003052D1D55F8041C002903D542F00102819249428291284621689290491C2160DE
:20017C00206801782E2926D1401C206001782A2916D0302901AA0ADB3A2908DA0146401CB5
:20019C002060097802F8011B01783029F4DA879810709DF804706FB101A80AF0BBFD09E080
:2001BC002168ED1C25F003052D1D491C929555F8040C21608390D8F80010819E08784C38AA
:2001DC002ED01C3814D0801E27D0801E04D0083820D0801F1BD02BE0491C0878C8F800104C
:2001FC006C2818BF46F040060CD146F4807619E0D8F80010491C0878C8F80010682803D0FE
:20021C0046F02006819613E046F400760AE046F4805607E046F4005604E046F4006601E0D6
:20023C0046F080068196D8F80010491CC8F800100978D8F800006E298DF8101200F1010039
:20025C00C8F8000000F0CE83732900F027830DF20120829C859020214FF4FF7201A809F061
:20027C00CBF9859887990DEB040707F1040B01700A468D920DF5007C8E920E468F929DF8CF
:20029C001032CDF814C21846642814DC642821D0253800F0EE821C3800F04981001F0228FA
:2002BC0040F24581133815D0093800F04081801E00F02E82B3E16538022840F23881001F65
:2002DC0008D0801F012805D9801F18BFB0F1030040F0A5818399002904D4819820F01000BE
:2002FC00819002E0012083900146B3F1580007D0173809D0401E03D0083818BF0A2204D130
:20031C00102202E0FFFF0F000822702B00F0B280819843F66077B246B1463840203800F0E1
:20033C008B8020387AD0C03861D0B0F5807047D0B0F5C06036D0B0F5006025D0B0F58050E5
:20035C0013D0B3F1580000F095800C3800F08980401F00F08680801F00F08C80801F00F0E1
:20037C008980C01E00F086808EE0B3F1580000F081800C3875D0401F73D0801F7AD0801F76
:20039C0078D0C01E76D07FE0B3F1580072D00C3867D0401F65D0801F6CD0801F6AD0C01E97
:2003BC0068D071E0B3F158002FD00C382DD0401F2BD0801F29D0801F27D0C01E25D063E0BE
:2003DC00B3F158000AD00C384BD0401F49D0801F04D0801F18BFB0F1030055D1ED1C25F083
:2003FC0003052D1D15F8049C4FF0000A4BE0B3F158000AD00C3808D0401F06D0801F04D0D4
:20041C00801F18BFB0F103003ED1ED1D25F007050835A5F1080090E8000634E0B3F1580003
:20043C0028D00C381DD0401F1BD0801F22D0801F20D0C01E28D11DE0B3F158000AD00C381F
:20045C000FD0401F0DD0801F04D0801F18BFB0F1030019D1ED1C25F003052D1D35F8044C01
:20047C000EE0ED1C25F003052D1D55F8044C4FEAE47A07E0ED1C25F003052D1D55F8044CDA
:20049C004FF0000AA1469295CD174C465046214350EA050708BF002903D181990D09C0F08F
:2004BC004D81642B18BF692B08D1002806DA012764424FF000018E9761EB000085A9009139
:2004DC000146204607F0C4FC8399401C814227DA9DF81032782B03D0582B18BF702B11D13C
:2004FC00819908090FD3702B08BF7823859803708598401E85903021017085989DF8103200
:20051C00401E859081996F2B40F018810809C0F0158185984278302A00F010813021F2E0A3
:20053C00859930220A708599491E8591CCE7ED1D184625F00705A0F1610108359295083D42
:20055C0095E80006192998BF20383446984208BF012447F6F07147F6F07000EA1A40814289
:20057C0012D1939F51464FF0000E4D460A004EEA020245EA0E014FF0FF35174005EA010293
:20059C0008BF002A40F0A680371C40F0A38047F6F07181420FD1949F5146484600250A008A
:2005BC00284345EA02014FF0FF320F4002EA000008BF00283CD0371C3AD151464FF0004068
:2005DC000840070007BF002000288AF0004A0126B3F1410025D0001F19D0401E10D0401E39
:2005FC0007D01A381DD0001F11D0401E08D0401E15D15146484681AA85AB03F04BFA0CE0AB
:20061C005146484681AA85AB0AF07CF805E05146484681AA85AB05F075F89DF81032819918
:20063C008CE05146484681AA85AB02F0D1FA2AE098A20CCA5146484608F054FE25D3002C48
:20065C0014BF4621662185988DF80012002CA0F10100859014BF4E216E2101708599002CAA
:20067C00A0F10100A1F10101859114BF4921692101708599491E85912B2700F8017C85986B
:20069C000326401E8590819956E0002C14BF4621662185988DF80012002CA0F101008590DE
:2006BC0014BF4E216E2101708599002CA0F10100A1F10101859114BF492169210170859900
:2006DC00491E85912D2700F8017C8199DDF814C204262EE0002C14BF4E216E2160468DF893
:2006FC000012401E002C859014BF4121612101708599002CA0F10100A1F10101859114BFAC
:20071C004E216E21022601708598401E859084E7ED1C25F0030534462D1D15F8047C92958D
:20073C0007B901248F9481998DF8007221F0020181916046401E85909DF810328598752BB1
:20075C0000F1010229D06F2B27D0782B25D0582B23D0702B21D01EB1761E1ED101238E93CE
:20077C0001F002038E9F8D931FB98B0808D32B2100E02D21017085988199521E401E8590CF
:20079C008D9E374309D1C80807D385982021017085988199521E401E859048080DD2859CDB
:2007BC008298ADEB040101F20121884205DB01A8241A5C44A4F5FE7400E001AC1146959A02
:2007DC0020464FF4FF730CF01AF98F9F859027B1879901708598401C8590834509D3ABEB5F
:2007FC0000022021401E521C08F006FF87988BF80000819840092ED301A8A04232D001A896
:20081C00221A302101A808F0F7FE8D9F8E9E374305D18198C00838BF0DF1050007D32078A4
:20083C0030218DF804000DF1060004F8011B9DF81022782A03D0582A18BF702A02D181998A
:20085C00090903D2612A18BF412A0BD1617801703027677006E001A8241A2021224601A855
:20087C0008F0CAFE01A80CF021FA8F9F0246D21904E07EA00188012201AF39808A9B88991E
:20089C0001A89847B0F1FF3F00F0A3808C9909188C91DBE00000000000000000839CF0098C
:2008BC0048D2DDF82092E81C20F00300001D50F8045C9290002D00F09080829F002C06D429
:2008DC0028460CF0F3F9A04288BF201C02D828460CF0ECF90446BC42A8BF071C8C98A74239
:2008FC0038448C900ADD700808D23E1B002E05DD899A202049469047761EF9D1002C07DD6B
:20091C002646899A15F8010B49469047761EF8D18198A74240F39A804008C0F097803F1B98
:20093C00002F40F39380899A2020494690477F1EF9D18BE0DDF82092ED1C25F003052D1D94
:20095C0055F8047C9295002F47D0002C06D438460CF01BFAA04288BF839C03D838460CF00F
:20097C0014FA0446829EB442A8BF261C8C98A64230448C900BDD8198400808D2351B002D08
:20099C0005DD899A2020494690476D1EF9D1002C0BDD2546BF1E37F8021FC8B2884214D166
:2009BC00899A494690476D1EF5D18198A6424DDD40084BD3361B002E48DD3746899A20202C
:2009DC00494690477F1EF9D140E00CF079FB582101604FF0FF308C9042E0899A9598494639
:2009FC00904733E043F660703040203825D0E0380ED0B0F5807017D0B0F5C06008D08C99F7
:200A1C00ED1C25F003052D1D55F8040C01601CE08C99ED1C25F003052D1D55F8042C084630
:200A3C00C91782E8030010E08C99ED1C25F003052D1D55F8040C017007E08C99ED1C25F0D0
:200A5C0003052D1D55F8040C018092958C98B0F1FF3F05D0D8F800008B9981423FF608ABAC
:200A7C008C987FB018B0BDE8F08FC046250070472DE9F04F0646ADF1640D0A91B0680C9337
:200A9C0037680B92884238BF0A90F96918460918491F384604F04CFC5FEA000900F19C823F
:200ABC00D7F838E0CDF834E0B189CDF838E04FF00008ADF8201044461694C446CDF85CC008
:200ADC00CDF860C0CDF840C0CDF844C0FA69CDF848C00A9BCDF84CC0521FCDF850C04FF656
:200AFC00FF7BCDF854C0B3FBF2F0B3FBF2FA50431FFA8AFA1B1A0F9327E0A4B1F969A1F106
:200B1C004D004008504506D80839AAEB000049080AF0DAFD00E051460E98BDF8242000EBB8
:200B3C00410002810AE00D99BDF824000A9B01EB4A02A2F84D0003EB08008860A844189D29
:200B5C000AF101001FFA80FA0F95B9F1000F40F0BF810C98404540F2BB81F869A0F14D0146
:200B7C004908514509D8A0F10802AAEB01015208B1FBF2F1491C8CB200E0189CA34500F067
:200B9C004581B8F1000F79D0BBF1000F34D10A9B0D9803EB08058560DBB9BDF82020189B4C
:200BBC003846314606F0FAFC002800F11482F8690090B96B0191BDF820303969B6F9042068
:200BDC0000FB03130621384607F0DEFF002852D501E2B86B0090109B01931A4602920395BF
:200BFC000DF122010491F288B3893846314605F0C7FC00283FD5EEE1BDF8202038463146CB
:200C1C005B4606F0CBFC002800F1E581F8690090B96B0191BDF820303969B6F9042000FBBF
:200C3C0003130621384607F0AFFF002800F1D3810E984088BDF820500090129B01951A4605
:200C5C000293B96BF388384604F0D0F81398009005462B4601950A9D0293454403950DF122
:200C7C0022020492F288B3893146384605F088FC002800F1B081B5607561F869B94D2CBBF7
:200C9C000090B96B0191BDF820303969B6F9042000FB03133846162106F048F8002800F163
:200CBC009A810D980079410852D230F07F0355D0810857D2C0085ED2F3886FF30E03002BE8
:200CDC0059D00D98408884425CD19DE0B168A0F14D02431F5208491EB1FBF3F18A4207D89B
:200CFC000838891A4008B1FBF0F0401C80B200E01898B8F1000F4DD1A0424BDB308A8442A5
:200D1C000DD00DF126000090189BF1882246384641F4004107F0ECFE002803D55BE1F08908
:200D3C00ADF82600F8690090B96BBDF8263001913969B6F9042000FB03131621384605F0EA
:200D5C00F5FF002800F147810D980079410802D32846083841E130F07F0301D128463CE197
:200D7C00810802D32846401E37E1C00803D2F3886FF30E0313B92846801E2EE10D98408836
:200D9C00844202D02846093827E1BDF82600ADF8200031E0F920F1888DF81C00169DADF8AC
:200DBC001A40012241F400402B46ADF818003846009541F40041019508AD029206AA039547
:200DDC0003F0CEF9002800F10681B86BFA69FF2108F012FC06A9B86B0A6802600979017157
:200DFC000094BDF820000190189D0295F388B96B0122384603F0FAFFBDF8205034820A98E8
:200E1C00F58140447061B060F869A3460F9D0C99451BA1EB08016D1F8D4288BF0D1C0F9BD6
:200E3C00002B38D094B1A0F14D014A08524507D8A0F10801AAEB020049080AF045FC00E0DA
:200E5C0051460E9800EB4100008904E00D9800EB4A00B0F84D00ADF82400BDF82420314698
:200E7C005346384606F0D4FD002800F1B4800B98BDF82430009540440190F9693869B6F923
:200E9C00042003FB01000F9B07211B1838465B1D07F07AFE18E0FD218DF81C10F088ADF8C5
:200EBC001AA0C0F30E01ADF81810012200950B99019308EB0103C0F30E01029209AA38465F
:200EDC00039206AA03F04CF95FEA00093FF415AEBDF8200034820A9DF0814544B560002CC4
:200EFC00756141D10A9850BB0D98BDF82020314623468560384606F051FB00286BD4F8695A
:200F1C000090B96B0191BDF820303969B6F9042000FB03130621384607F036FE00285AD4BE
:200F3C000D9841880091BDF82050019580680290F388B96B0422384603F058FF4CE0B86B85
:200F5C000090189C0194029403950DF122030493F288B3893146384605F012FB00283BD5CF
:200F7C0039E0C046ECD8FFFFBDF8202038463146234606F013FB00282DD4F8690090B96BDF
:200F9C000191BDF820303969B6F9042000FB03130621384607F0F8FD00281CD40E98408801
:200FBC000090BDF820400194189C0294B96BF3883846224603F01AFF0094019402940395A9
:200FDC000DF122000490F288B3893146384605F0D7FA002800D58146484619B0BDE8F08F91
:040FFC000C2070470E
:20100000B41200001810000015AB0110FDB301106DC00110FDAE011099B5011000000000F7
:08102000000000003000000098
:20102800B01200003C100000B1C00110A9BF011067C0011069B80110000000000000000035
:041048002E00000076
:20104C00B012000060100000BDC00110CDB30110D9BD01106DB3011000000000000000005B
:04106C002F00000051
:2010700000000000E00B002004000000000000000000000020000000E8C90110300000003F
:2010900028100000E80B00200400000000000000000000000C000000D8CA0110180000001A
:2010B0004C100000F00B002004000000000000000000000024000000F0CA0110180000009E
:2010D00000000000F80B00200400000000000000000000001000000018CA01102C000000AA
:2010F00000100000000C0020040000000000000000000000200000006CCA01102400000015
:20111000FFFFFFFF080C00200400000000000000000000002800000090CA011024000000D4
:20113000FFFFFFFF100C00200400000000000000000000001400000008CB01101800000053
:20115000FFFFFFFF180C002004000000000000000000000058000000B4C901103400000021
:20117000FFFFFFFF200C00200400000000000000000000001000000020CB011018000000EF
:20119000FFFFFFFF280C00200400000000000000000000001C000000B4CA0110240000001C
:2011B000FFFFFFFF300C00200400000000000000000000003800000044CA01102800000044
:2011D000FFFFFFFF380C00200400000000000000000000005400000078C901103C000000B9
:0811F00002000000A0E3000072
:0411F80001000000F2
:0411FC0000000E00E1
:0412000000000F00DB
:0412040032000000B4
:0412080001000000E1
:04120C00600B002053
:0412100000020000D8
:04121400756B0000F6
:0412180001C90110F7
:04121C0000000000CE
:0412200000000000CA
:0412240008000000BE
:04122800000023009F
:04122C00080A00208C
:0412300001000000B9
:04123400780B002013
:0412380008000000AA
:04123C00200B002063
:0412400000000000AA
:0412440000000000A6
:04124800080000009A
:04124C00000000009E
:04125000000000009A
:041254000000000096
:041258000000000092
:04125C00010000008D
:04126000700A0020F0
:041264000600000080
:041268000100000081
:04126C0070090020E5
:04127000000000007A
:041274000000000076
:041278000002000070
:04127C00000000006E
:021280002A0042
:02128200010069
:02128400250043
:021286002E0038
:021288002F0035
:02128A00300032
:02128C0001005F
:01128E00015E
:081290000300000060E3000010
:0812980000000000000000004E
:0412A0000000010049
:0412A4000000030043
:0412A800217F0000A2
:0412AC0011CC000061
:0412B000B812000070
:0412B400B81200006C
:0412B8000000000032
:0412BC00780B00208B
:0412C000B9CD0000A4
:0412C4002000000006
:0412C8000CE3000033
:0412CC0068E10000D5
:0412D00029C101101F
:0412D4007B72000029
:0412D8001F7F000074
:0412DC00A1C7011095
:0412E000A3C701108F
:0412E4000000000006
:0412E800BBE3000064
:0412EC007CDF0000A3
:0412F00094DF000087
:0412F40064DF0000B3
:0212F8000200F2
:0212FA000900E9
:0212FC000100EF
:0212FE000000EE
:0113000001EB
:04130400DDCC00003C
:0413080005BC000020
:04130C0049C60000CE
:04131000EDBE00002E
:0413140017BD000001
:04131800A5B000007C
:04131C00B58F000089
:041320002BCF0000CF
:04132400A5A300007D
:0413280015C70110D4
:04132C0025C70110C0
:201330002DE9F04F0546686B8A46ADF1740D14220021AE6B1090EC69119608A808F062F92C
:2013500061080F91A88C1296002182458DF8201009D12A6A0AF101000027B0FBF2F1AF62CB
:201370005143401AA884A14800241990A146CDF85C9021461A911B914E4614961596C84640
:20139000169647461896E2E09DF82070B8F1000F384640F04B82002848D0401E03D0401E6D
:2013B00000F0D180CDE00020BDF82470BDF82220BDF826300B9C8DF820001046A7B9A86BAF
:2013D000149F00903E463946019742F400420296284603910DF13A07049705F0D7F85FEA26
:2013F000000800F123821EE01799009101930DF13A070297AA6B40F40043284603F0A6FD04
:201410005FEA000800F11282129840880090BDF83A700197189E0296BDF82230A96B32460C
:20143000284603F0E9FC9DF8207090E09DF83070002F00F08280012005278DF8200006AEC5
:2014500000971B9A0196E96928690B9409FB01032846152105F070FC002825D4E869BDF8E3
:201470001A10A0F14D0252088A4209D80838891A4008B1FBF0F0401C82B2ADF8242003E038
:201490000020ADF8240002460EA8BDF822101B9B0090284641F4004107F030FB19990A3135
:2014B00081423ED0002801D5199015E0E8690090A96BBDF838200191296900FB02131B9AC4
:2014D0001521284605F038FC5FEA000800F1AE8112980079410801D3199892E130F07F07B4
:2014F00004BF1998083000F0A281810824BF1998C01D80F09C81C00824BF1998801D80F02D
:2015100096811299BDF82400498888421CBF1998401E40F08C81BDF838001B9CADF82600EF
:2015300081E7BDF82810284606F0D4FA5FEA000800F17C810B9C002006E002208DF8200061
:2015500007461B9C03E003208DF820000746B8F1000F40F06B81032F00F06881002001235C
:201570008DF830000F9F139394FBF7F641E02846494606F0AFFA5FEA000800F157814FF6BA
:20159000FF70ADF83400BDF82470BDF81A1097B1E869A0F14D0252088A4205D808388A1A6B
:2015B000410810460AF096F81298BDF8342000EB4100028118E01198BDF8342000EB4100BC
:2015D000A0F84D2010E07FB14FF6FF70B8420BD0F80BC30308D1ADF82270ADF828900120F6
:2015F0008DF830001B981390641C2FE0E4D8FFFF761C139800283FF4C7AEB8F1000F40F092
:201610001581E969AA69B2FBF1F04000B0FBF1F7002F08BF012004D0B2FBF1F04000B0FBFA
:20163000F1F0B0427FF7B0AE0091686B019028690AFB02001B9A06FB01031421284605F014
:201650007BFBDDF83CB080460BFB06FB13980028CED0B8F1000FCBD10F99A4EB0B008142AC
:20167000C6DDE869A969B1FBF0F35A00B2FBF0F7002F08BF012104D0B1FBF0F35900B1FB57
:20169000F0F1591AA142B3DD109A6100A1EB4B019DF820C0575A5900B1FBF0F202B90122A5
:2016B0000AFB03415FEA0C030A441FFA82F98AD05B1E69D05B1E95D1002F95D04FF6FF7163
:2016D000B94291D0F90BC9038ED0052106AB00911B9A0193296900FB09132846152105F07D
:2016F0002BFB002800F18D809DF81C3033F07F0314D12846494606F0EDF95FEA00083ED1EA
:20171000BDF81A001B99009002223B46CDF8049008460290284603F06FFB30E006A81B9A8A
:2017300000903B46CDF804900DF1360011460290284603F00BFC002863D4BDF81A000090EC
:20175000DDF86C80BDF8360006A903223B4601902846CDF8088003F04FFBE8690090696B3A
:201770000191AA6929690AFB021106FB001342461421284605F0E0FA5FEA000856D4B8F1D8
:20179000000F7FF531AF51E0BDF82210B9427FF42BAF052106AB00911B9A0193296909FB2F
:2017B00000132846152105F0C7FA5FEA00083DD4E869BDF81A20A0F14D014908914288BFC0
:2017D0001B9805D80838521A4008B2FBF0F0401CBDF8241081427FF407AF9DF81C0030F0E6
:2017F0007F003FF4C4AE06A83B461B9A00900DAFCDF8049011462846029703F0A7FB002811
:2018100001D5804612E0E8690090696B0191AA6929690AFB02111B9A06FB001314212846BA
:2018300005F08AFA5FEA00087FF5ADAE40461DB0BDE8F08F2DE9F04F05462C680E46ADF162
:20185000740D9046E1690E932046C918491F03F075FDCDF83480071C0C9600F14382A36B20
:201870001093119300260F96A8891896B2461390D446CDF864C0CDF868C0E169CDF86CC0A1
:20189000491FCDF854C00C9BCDF858C04FF6FF76CDF870C0B3FBF1F212961FFA82FBB3FB47
:2018B000F1F05246484317921E1A26E0BAF1000F14D0E169A1F14D004008584506D8083962
:2018D000ABEB0000490809F005FF00E059461198BDF8222000EB4100028106E01098BDF803
:2018F000221000EB4B00A0F84D100F9E0BF101001FFA80FB46440F961C9E002F40F0A881CC
:201910000E980F99884240F2A381E769A7F14D00400858450AD8A7F10801ABEB00004908C5
:20193000B0FBF1F0401C1FFA80FA01E0DDF870A01298504500F0BF800F9F002F3AD0071CDE
:2019500012D1A06B0090159F01973B4602933A46039208A90491EA88AB892046294604F0CD
:2019700015FE002826D5ADE1139A204629463B4605F01AFE002800F1A5811898139F009052
:2019900009AB0197119A0293B5F90410EB88204603F0DCFA002800F1958111994888BDF8E9
:2019B00024700090199B01971A460293EB88204603F022FAC44FBAF1000F26D1E06900902D
:2019D000A16B139B01912169B5F9042003FB00131621204605F0B0F9002800F1738110984E
:2019F000007941083BD230F07F0300F07B8181083ED2C00846D2E8880B90C00BC30341D054
:201A100010984088824544D149E0288A82450DD00DF1260000901C9BE9885246204641F4DC
:201A3000004107F06BF8002803D54BE1E889ADF82600E0690090A16BBDF826300191216987
:201A5000B5F9042000FB03131621204605F074F9002800F1378110980079410802D3384606
:201A7000083840E130F07F0300F03C81810802D33846401E37E1C00804D2E8880B90C00BE0
:201A9000C30302D13846801E2DE110984088824502D03846093826E1BDF82600139013987B
:201AB0000F9FA5F810A00C9BE881D8196861E769CDF848A001E0E8880B900E990F9AB81B45
:201AD0004FF0FF09401F891A884288BF081CBAF1000F804612D0A7F14D004008584507D86D
:201AF000A7F10801ABEB0000490809F0F3FD00E05946119800EB4100008904E0109800EB11
:201B10004B00B0F84D0014900B98ADF81AB08DF81C90C0F30E01ADF8181026B9A8EB070086
:201B300010F1050F7ED0149A204629465B4605F075FF002800F1C6801A980090074601971F
:201B50003B4602930DF122020392E88806AAC0F30E01204602F00AFB071C79D196B1E0696C
:201B700022690096149BBDF822C0B5F9041003FB00235B1D00FB0C22521D204608F0DCFBC6
:201B9000071C65D1E06906EB0802411F914219D92269149BBDF822C0811BA1EB0801491F09
:201BB0000091B5F9041003FB0023F31800FB0C20434432185B1D42442046521D08F0BCFB1C
:201BD000071C45D10F9F0D98CDF800803F180197BDF82230E1692069B5F9042003FB01008A
:201BF000361807212046731D06F0D4FF07469DF81C006FBB20F002008DF81C000127009706
:201C100007AE0196BDF82230E1692069B5F9042003FB01031B1D2046072106F0BBFF071C21
:201C30000FD015E0CDF8008001220F9B0D9F01960DF122000292DB1906AA0390204602F028
:201C500095FA1499204605F045FF071C3FF42EAE13980F9E0C9BE881BAF1000F03EB060051
:201C7000686156462E8210D1A06B00901C9E01960296039608AB0493EA88AB89294620467C
:201C900004F084FC00282DD51CE0139A20462946334605F089FC002814D4DDF870801398A5
:201CB000CDF800800AAB0190119A0293B5F90410EB88204603F04AF9BDF828102E820028B3
:201CD000E98103D507460DE0ECD8FFFF119948880090BDF82860019642460292EB882046E3
:201CF00003F08AF838461DB0BDE8F08FF0B505AFADF1640D0A9309920891079038681590DB
:201D10000020386007983CC869463CC10DC881E80D00079880690078000A21D307988069DB
:201D300017901798C0681390179880681490179800798DF85800179840798DF859009DF857
:201D500058002E2807DC9DF859002E2803DB2E208DF85A00FEE1179800798DF85A00F9E1D3
:201D700007988069D0F8C400139007988069001D149020208DF858007E208DF859002E206C
:201D90008DF85A00E6E1BDF90C000A998842C0F2EA8108999DF8580091F90010884213DC60
:201DB00008999DF8590091F9001088420CDB08989DF85810149A90F90000401A139932F835
:201DD0001000091812910AE09DF858109DF85A00149A401A139932F81000091812910898F7
:201DF000401C089012990A984A78BDF908108018814205DD12990A98497840180A90A9E13B
:201E100002200B9000200C900020119000200D9095E10D9A3868BDF90E1080188142C0F21D
:201E300094810698007830F0800051D100200F901FE012980B9A1199105C884009F02AFB9C
:201E50000E900E98082803DD1198C0F108000E900E990F9840180F9011980E994018119090
:201E7000119808280AD1002011900B98401C0B90FFE712980B9900788842DADC0020109057
:201E900020E012980B9A1199105C8840C04309F001FB0E900E98082803DD1198C0F1080057
:201EB0000E900E9910984018109011980E9940181190119808283ED1002011900B98401C3C
:201ED0000B90FFE712980B9900788842D9DC32E012980B99085C78B112980B99085CC0F3DA
:201EF00003100F9012980B99085C00F00F0010900B98401C0B901EE00B981299401C085C29
:201F1000000A0DD300200F9012990B98401C085C00F07F00C00010900B98801C0B900AE067
:201F30000B981299401C085CC0000F90002010900B98801C0B900F98002800F081800D9A23
:201F50003868BDF90E108018814279DB0F9801283BDD12990C984978401C814235DD12997A
:201F70000F9A0C9849788018814204DA12980C994078401A00E00F980E900D9A3868BDF987
:201F90000A108018814217DC3879A8B10798406904900C990A9A159B3D680E9E0C9CDDF81C
:201FB00028C00D9852185B1992191B180CEB0401521E684606F037FB0E990F98401A0F903F
:201FD0000C980E9940180C902CE00C9A0A98BDF90810801881421FDC0C9A0A98BDF90C1020
:201FF0008018814218DB0D9A3868BDF90A108018814211DC387978B10798079B0C9D0A99BD
:202010003E68159A0D9C40689B8A4919921989B2121992B20AF017F90F98401E0F900C98DC
:20203000401C0C9012980C994078884204D10D98401C0D9000200C900F9800287FF47FAF28
:20205000109800287BD00D9A3868BDF90E108018814274DB1098012839DD12990C98497899
:20207000401C814233DD1299109A0C9849788018814204DA12980C994078401A00E0109845
:202090000E900D9A3868BDF90A108018814215DC0798006904900C990A9A159B3D680E9E49
:2020B0000C9CDDF828C00D9852185B1992191B180CEB0401521E684606F0B5FA0E9910983C
:2020D000401A10900C980E9940180C902AE00C9A0A98BDF90810801881421DDC0C9A0A98FB
:2020F000BDF90C108018814216DB0D9A3868BDF90A10801881420FDC0798079B0C9D0A99C8
:202110003E68159A0D9C40681B8A4919921989B2121992B20AF097F81098401E10900C98DA
:20213000401C0C9012980C994078884204D10D98401C0D9000200C901098002883D11298C9
:202150000B99007888423FF764AE12990A98497840180A90089890F9000020B10998411E47
:20217000099100B10FE619B0F0BD7047BFB501465148806804686FF00E020846801A07D00C
:20219000083803D0001F18BF4CA003D155A000E063A0E16C0AF046FC2078A0B1401E0CD0E2
:2021B000401E04D0401E14D16AA56CA713E0606869460AF049FB6BA50AE0606869460AF065
:2021D00033FB6AA504E0606869460AF01DFB68A5876807B967A76AA000212A460AF022FCC8
:2021F000636873A029463A460AF01CFCA26877A029460AF017FCE2687AA029460AF012FC78
:202210002169226B7DA00AF00DFC6169626B82A00AF008FCA169A26B86A00AF003FCE16940
:20223000E26B8BA00AF0FEFB216A226C8FA00AF0F9FB616A626C94A00AF0F4FBA16AA26C1E
:2022500099A00AF0EFFBE16AE26C9FA00AF0EAFB216DA5A00AF0E6FBCB4CD4F8041DA6A0A2
:202270000AF0E0FB94F8281DA7A00AF0DBFB94F8291DA9A00AF0D6FBB4F82A1DAAA00AF074
:20229000D1FBD4F82C1DACA00AF0CCFBD4F8301DADA00AF0C7FBD4F8341DAFA00AF0C2FBFB
:2022B000D4F8381DB0A00AF0BDFBD4F83C1DB2A00AF0B8FB0090BFBD44010020426F6775C9
:2022D0007320457863657074696F6E2072657475726E2076616C75653A20253038782E0A18
:2022F00000C046C0457863657074696F6E206F6363757272656420696E206261636B677261
:202310006F756E6420746872656164206174205043203D203078253038782E0A00C046C08F
:20233000457863657074696F6E206F6363757272656420696E2049535220746872656164CA
:20235000206174205043203D203078253038782E0A00C0464D61696E00C046C06D61696E6D
:20237000282900C05461736B00C046C0537769004877690028756E6E616D65642900C04649
:20239000436F72652025643A20457863657074696F6E206F6363757272656420696E205410
:2023B0006872656164547970655F25732E0A00C02573206E616D653A2025732C2068616EAA
:2023D000646C653A20307825782E0A00257320737461636B20626173653A20307825782E8B
:2023F0000A00C046257320737461636B2073697A653A20307825782E0A00C0465230203D58
:20241000203078253038782020523820203D203078253038780A00C05231203D2030782534
:202430003038782020523920203D203078253038780A00C05232203D2030782530387820FF
:2024500020523130203D203078253038780A00C05233203D20307825303878202052313102
:20247000203D203078253038780A00C05234203D203078253038782020523132203D203006
:2024900078253038780A00C05235203D20307825303878202053502852313329203D20309D
:2024B00078253038780A00C05236203D2030782530387820204C522852313429203D203080
:2024D00078253038780A00C05237203D20307825303878202050432852313529203D203069
:2024F00078253038780A00C0505352203D203078253038780A00C04649435352203D203078
:2025100078253038780A00C04D4D465352203D203078253032780A0042465352203D2030D7
:2025300078253032780A00C055465352203D203078253034780A00C048465352203D20303A
:2025500078253038780A00C044465352203D203078253038780A00C04D4D4152203D203027
:2025700078253038780A00C042464152203D203078253038780A00C041465352203D20301C
:2025900078253038780A00C000E000E02DE9F04F09AFADF13C0D08900A92388809911E463E
:2025B000ADF81800101C08BF002000F08481002700F101094FF0FF3A4FF0010BB8466CE116
:2025D000252940F063811078521C0A922D2818BFADF8068005D15846551CADF80600107888
:2025F0000A9530281CBF4246434605D10A9908785A465B46491C0A912A28CDF8008055467C
:2026100016D1306804930A99CDF808A0C01C4B1C20F00300001D306050F8044C0A93002C20
:202630000878009418D5ADF806B06442009413E044460AE0610001EBC4010918A1F1300494
:202650000A9908780094491C0A91302801DB3A28F0DBCDF808A004932E282BD10A990878D9
:202670002A2801F101010A9111D13068CDF80880C01C20F00300001D306050F8045C002D31
:2026900048BF454608782B46491C0A9111E0454643460AE0690001EBC5010918A1F13005B5
:2026B0000A9908782B46491C0A91302801DB3A28F0DB02930AB1224604926C2804D04C28EB
:2026D00018BFADF8048005D10A990878ADF804B0491C0A910BA9CDF80C800FAB07916428B5
:2026F000059300F08B80692800F08880BDF818C0752872D078286ED06F286AD0702850D0DB
:2027100063283DD073281ED009980A990128A1F101010A9115D96B490C68B5F1FF3F03D01F
:20273000A84288BF6D1C00D8099D029508A80AA932466B46A0473F180A99039801F10109B6
:2027500074E040462AE030680A99C01C20F00300001D306050F8040CBCF1000F01F101099E
:20277000014608B955A0014607910AF0A5FA0390B5F1FF3F5BD0A842C4BF281C039056E0B8
:202790003068C01C20F00300001D306010F8040C5D468DF82C000A990395584601F10109B4
:2027B00045E0082035680490E81C20F00300001D306050F8041C082210230FA807F0A0F9BB
:2027D000401E0790402101700A99079801F1010929E0082302E0102300E00A230A99306853
:2027F00001F10109C01C20F00300001D306050F8041CAA42BCBF2A1C049210E00A9930685B
:2028100001F10109C01C20F00300001D306050F8041CAA42BCBF2A1C04926FF009030FA843
:2028300007F06EF90790059D281A0390009C241ABDF8065000945DB906E008A8202109AA03
:2028500009F0B0FD7F1C009C641E0094F5D503980546401E039075B9BDF80600E8B10098BA
:20287000401E009019D408A8202109AA09F09AFD00987F1CF4E70798411C0791017809AA6B
:2028900008A809F08FFD03987F1CE1E708A809AA09F088FD7F1C09F101094A460A9812F839
:2028B000011C401C00290A907FF48AAE089808B14146017038460FB0BDE8F08F286E756CF8
:2028D0006C2900C00CE40000BB482DE9F84F0025BA4CB849056094F8E200002800F0658146
:2028F000012800F02F81B64E02283CD0032840F05C8151F8250CD4F8B8100029A0F5C060A1
:20291000C4F8D400B8BF49420028B8BF4042814226DA4FF08057D7F8A4014568B4F8BC0092
:2029300030214FF47F42082300903046A847D7F8A4014568B4F8C00004214FF4F8021223EE
:2029500000903046A847D7F8A401B4F8D070456820214FF440620A2330460097A8470125F0
:2029700084F8D8501CE151F8258C0AF0E3FA2F4600B901273946934F38680028FCD0B14693
:20299000012609F10409D9F82CA03E6009B10AF0D7FACAF30720C4F8BC000AF0CBFAAA462E
:2029B00000B9B2463B68002BFCD0D9F800B0BAF1000F3E6001D00AF0C3FACBF38440C4F81D
:2029D000C0000AF0B7FAAA4600B9B2463B68002BFCD0D9F81C90BAF1000F3E6001D00AF0A1
:2029F000AFFAC9F38120C4F8D000B8F5C061C4F8B81000F09C8094F8D80068B9C4F8D410B2
:202A1000D4F8C000C4F8C800D4F8BC70C4F8C470D4F8D030C4F8CC30D4F8D400D4F8BC30D2
:202A3000002854BF02226FF0010204F1C8010F6800EB40008018421000EB927207EBA200F8
:202A50000860D4F8C810C4F8C43000291CDD1E293CDDD4F8CC0030B93429B4BF15391E214A
:202A7000C4F8C81025E02A29BABFD4F8C8000B381E20C4F8C800D4F8C4003F28B4BF401C82
:202A90003F20C4F8C4001FE0D4F8CC00032812D011F10B0FC6BFD4F8C8000B30301CC4F82B
:202AB000C800D4F8C4000028C4BF401E051CC4F8C450032508E011F1150FC6BFD4F8C80065
:202AD0001530301CC4F8C800C4F8CC504FF08057D7F8A401B4F8C43030214FF47F424568CD
:202AF000374800930823A847D7F8A40104214FF400321123456832480096A847B4F8C860D8
:202B1000D7F8A40104214FF4F802122345682C480096A847D7F8A40120214FF440620A232D
:202B3000B4F8CC60456826480096A84701E084F8D85040F2FF50404502D8801C40452FD286
:202B5000082030E051F8251C1F4F4BF2F5204843060A3868C0F3814001280CD11B48006863
:202B70000068804708F092FE0AF0F0F93111C010484306EBE03694F8E50030B914480068E9
:202B900020F07F403618760801E084F8E5501148310C0660012741600F4D8760287808B98F
:202BB0000B2000E0052084F8E40001F017FABDE8F88FC0462D400C402C500C40B4070020E5
:202BD00000A00C4000800C40B43F0050EC010010102009403C600C406DE200002DE9F04FE8
:202BF000074616460020ADF17C0D1B938BA4009094E80C00384606F0BEFB88460FF22C298F
:202C10000CD988A494E80C00384606F071FB05D999E80C0006F06CFB02D109E094E88001AA
:202C3000414638466A4607F0FDFA0098401E0090307BB5680024A0F14101B5F1FF3F1D910A
:202C500008BF0124A24641280CBF6AA06EA01E9030208DF8080099E80C004146384606F031
:202C700047FB38BF88F0004899E80C00414606F03FFB0CD0384601AA07F0D4FA019A41461B
:202C90003846C2F1010204F059FB88460746384608F0B8F983460DF1090107F0E3FD044674
:202CB000584609F0A2FA0B4602464146384601F0B9F80FF2801B0DEB04021C940746BAF14F
:202CD000000F02F1090453D16D1C15D09BE80C0003F0DEFC8846814608F094F91E99095CB1
:202CF00004F8011B09F081FA0B4602464146484601F098F86D1EE9D11D9F641E002F14BF84
:202D100041A53CA52178284609F06FFF401B082833DB27464FF000081D987F1E002814BFD4
:202D300039A534A53978284609F05FFF401B401C1028B4BF295C3021102839701DDB87F8C6
:202D50000080E9E79BE80C00384603F0A1FC0D46074608F057F91E99095C04F8011B09F061
:202D700044FA0B4602462946384601F05BF8074699E80C0006F0BCFAE4D10025307B25709B
:202D9000412814BF702150211B9A009807F03AFEB068B0F1FF3F05D10DF1090009F08CFF11
:202DB000401EB0601C991B9B0DF109040246204608F02EFD3168B0682A4601F008010843E8
:202DD00018BF01221C991B9B204606F061FE307B412814BF782158211B980268531E0360D9
:202DF0001170016830274A1E02601FB00F70BDE8F08FC046303132333435363738394142B0
:202E10004344454600C046C03031323334353637383961626364656600C046C000000000A2
:202E30000000F07F000000000000F0FF000000000000000000000000000030402DE9F04F5F
:202E500094460446626B0E46ADF12C0D1F460792E1690497206ACDF80CC00839059006224A
:202E7000B1FBF2F501468D4288BF0D1C002160460160A06BE269FF2106F0C4FBA06BAA46DB
:202E90004FF0000C634600EB4A01E346306065460890C91CE269069321F00301099150082C
:202EB0000A905AE0B4F85600BDF80810814204DBBDF80810401A401E02E0BDF80810401A2F
:202ED000049F1FFA80FE002F14BF00203220494601EB8101BAF1000FA1EB08010EFB0016C9
:202EF0002EDD089B0998514600259B1E33F8022F4FF6FF7E964520D00268964206DC491E8A
:202F100000F1040005F10105F0D119E0AAF102018D4212DC089A0999AAEB050702EB4A027D
:202F30007F1E01EB8A01921E091F32F8025D558051F8045D7F1E4D60F7D1A3F800B00660CA
:202F500003990868401C0860A169069A0BF1010000251FFA80FB52180692BCF1000F40F043
:202F700085800598401EB0F1FF3F05907ED0A169A946C8464E4641E00090616B0191069B34
:202F90002169002206FB001014211B18204603F0D3FE0A9FA169844677430AE0002B07BFC0
:202FB00009F101001FFA80F908F101001FFA80F86D1CBCF1000F20D10A9AE81B82421CDD4F
:202FD000E269B1FBF2F04300B3FBF2F3002B08BF012204D0B1FBF2F04300B3FBF2F2801A4C
:202FF000A8420ADD079A6800A0EB4700135A4FF6FF729A42D2D14FF0010C761CBCF1000FD9
:2030100010D1E069B1FBF0F25200B2FBF0F7002F08BF012204D0B1FBF0F25200B2FBF0F2A6
:20303000B242A9DC3CF001008FD1E069B1FBF0F25200B2FBF0F72FB1B1FBF0F25200B2FB50
:20305000F0F200E001220223009302AF019723690BFB013102FB00132046002215219B1E2F
:2030700003F06AFE5FEA000C7FF51CAF0BB06046BDE8F08F2DE9FE4F05467B4800240068CF
:203090000094C00905D37948007810B9202008F0D7FE012D40F0E280DFF80092D9F8DC0006
:2030B000012840F0D8800220C9F8DC0009F03CFB012008F0C5FE5FEA000805D00120C9F87C
:2030D000DC0009F041FBCBE00AF03EF8A34602906748684DC0F800B0A86A01680120884742
:2030F000012804D1584606F0AFFD012000906248624FC0F800B03868112009F045FF00B14F
:203110000124102009F040FF08B144F002040F2009F03AFF08B144F004040B2009F034FF72
:2031300020B12868564E016B308888470A2009F02BFF20B12868534E016B308888475248AB
:20315000012606602868816944F0200088474F48066009F013FF00F001010191400814D27B
:20317000286A81684A4888478246BAF1040FF7D0BAF1010F04D1286A4268454803219047C2
:203190004449086820F003000860584600F096F92B683868986B8047019801280CD0BAF144
:2031B000010F04D1286A42683948314690473949086840F0030008602F480660286841696B
:2031D000204688470B2009F0DFFE20B128682C4BC16A188888470A2009F0D6FE20B12868DF
:2031F000284BC16A18888847274806600322C9F8DC20264BC3F800B02868416B20468847AE
:203210000128F9D13868042008F01AFE0446184806603868144800688009FBD3009801284B
:2032300002D1304606F010FD09F08AFE082008F007FE07460298C9F8DC600AF09BF81648BD
:20325000008806F07DFB09F07FFA57EA040018BF4FF0FF3804E06FF0040801E06FF00108CC
:203270004046BDE8FE8FC046141009409C0800200C400940B8010010000222432C200940F5
:2032900046DF000042DF00002820086080010443004003402422084068E20000B40700202A
:2032B0002DE9FE4F0E46074630687C68D7F808B0F8B1B5680DB97368DBB194F894100020B4
:2032D000012908BF0120284202D17168084205D0012080F00100C0B201280AD109F024FF73
:2032F0008146D4F8880038B148460AF03FF8032030740020BDE8FE8F01253574C4F888606F
:2033100000200190C4F88C00C4F8900048460AF02DF894F8AC0038B194F895206649D4F8CE
:20333000A400114308F0DAFBD6F8048009F0FCFE824694F8E00080B918F0704F08D1B8F1BD
:20335000000F05D0042008F079FE062008F076FE022008F073FE84F8E05050460AF006F88F
:20337000DBF80010486840F002004860207800287BD1DBF81C003168884276D9207B18B1BF
:203390006068B0F1FF3F70D1484609F0EFFFB0685D46002814BF804604F1AE08706828B9E0
:2033B000E88904F1AE07A4F8AE0000E00746606909282CBF4FF0020A4FF0010AD6F8009093
:2033D000B9F1000F24D0606909280CD32868398809F03BFE2868694609F0BEFDBDF800002C
:2033F000A8F800000BE02868397809F02EFE2868694609F0B1FD9DF8000088F80000B368B6
:2034100003B1D044736803B15744B9F10109DAD12968C8684008FCD3DBF80010486820F0D0
:2034300002004860776809F07FFE054694F8E00078B117F0704F06D12FB1062008F0E6FC20
:20345000042008F0E3FC022008F0E0FC019884F8E000284609F08AFF0198D4F8881008740D
:20347000C4F888000120019022E02046594602F0FFFEDBF80010486940F00100486120784A
:203490000028EFD1616804F16C00054609F071FC0028E7D0D4F88800017C012904BF032198
:2034B0000174384603F0BCFC0199284609F061FC0198BDE8FE8FC046000006802DE9F84F4C
:2034D000DFF8F0B10746ABF13500DFF8DC910068800880F0D8807048006800688047794939
:2034F0000831D1F8008000254FEA28725FEA985102F101020AD2C0F13E0110F10A0F4FEAFB
:20351000E101D8BF08218A42B8BF0A1C634BD3F87C11C1F304611629A8BF20391B68C3F339
:203530000443162BA8BF203B9A465118162905DA11F10A0FB8BF6FF0090100E01521584B16
:20355000584E01F01F0242F4F8521A80326812F0030F18BF0125D20828BF45F002050FB121
:2035700045F004054A4692F90730C31A052B04DA9379AB4208BF918865D0DFF830E10F2893
:20359000A0F10F0C25DB0CEB0013A3F1F00C4FEA2C26072E88BF07263446062C88BF062484
:2035B0005EF82470042303EB84037446E358DB1B03F0FF04EF0824BFC3F307273C44AF089F
:2035D00024BFC3F307473C446F0828BF04EB136401E0002426465EF826E0EF080EF0FF03EC
:2035F00024BFCEF307273B44AF0824BFCEF307473B446F0828BF03EB1E63A4B2ACEB06265C
:20361000BAEB010104FB06F404F1800403EB1423D8BF0121342408F0FF074C437C43B4FB50
:20363000F3F14FF6FF738B4238BF191C802889B2918005DA10F1800FB8BF6FF07F0000E04E
:203650007F20D07195711A4800681F2910604FF0000008D340F2FF128A4206D24908401C44
:203670008A42FBD301E01F219180134F0F39090940EAC10047EA0001CBF8FB1F0026CBF8CF
:20369000FF6FBDE8F88F0D490D4F4A4608200F60921D1070BDE8F88FEC0100103C110050B2
:2036B0006E62084024220840800600209C130050082009403500094000E7A480301009402C
:2036D000FDFDA400AC3F00502DE9F04F044609AFF8687D699B46ADF12C0D96460590E369EF
:2036F0000795B8683D6904900E46069538887D680290A1690395B1FBF3F04700B7FBF3F78A
:2037100027B947000125B7FBF3FC05E0B1FBF3F04200B2FBF3FC65465B08676B226A099351
:20373000BCF1000F06FB01FA0897A0EB0503754602FB03F914BF674601274FF0000CC01B0D
:20375000A8420FDC761C6546B6B2B24201FB06FA08D85FEADB0080F0B1806646E24601E095
:203770002E46B246BCF1000F02D1B9F1000F05DCBCF1000F40F1A2806046A1E0099895FB3D
:20379000F0F77AE00090616B01912169002207FB00100AEB00031421204603F0CDFADDF80A
:2037B0002480A169844608FB07F84BE05FEA5B0007D3089A029B6800A0EB4800105A83422D
:2037D0003DD1069B0BB118460680079B0BB118460560039B002B08BF002071D05FEA9B0094
:2037F00028BF029904D208996800A0EB4800095A0498009005989C4632462B460190204697
:20381000E0473149491C814212D02F49814257D1E0690090616B01912169002207FB001095
:203830000AEB00031421204603F086FA002847D4A1696D1CA9F101094FF0000C05E0A9F12E
:2038500001096D1CBCF1000F16D1099AA5EB0800824211DDE269B1FBF2F04300B3FBF2F386
:20387000002B08BF012204D0B1FBF2F04300B3FBF2F2801AA84299DC7F1CBCF1000F11D1BA
:20389000E069B1FBF0F25200B2FBF0F3002B08BF012204D0B1FBF0F25200B2FBF0F2BA420B
:2038B0003FF770AF206A761C8A440025B6B28642FFF458AF5FEADB00FFF452AF0248401EAA
:2038D0000BB0BDE8F08FC046A9D8FFFF2DE9F84F6D4F6C4938784FF0000B08706B4C87F8FE
:2038F00000B06B4E84F800B030680122082108F011F930680921012208F00CF930680A2198
:20391000012208F007F930680B21012208F002F930680C21012208F0FDF80125A846BA46B9
:20393000A14605F10C00C0B2009009F093F900283FD09AF8000010F0380F3FD1E8008AF87D
:203950000000306808215A4608F0E4F8306809215A4608F0DFF830680A215A4608F0DAF8C4
:2039700030680B215A4608F0D5F830680C215A4608F0D0F84446E01DC1B23068424608F0D7
:20399000C9F8009809F066F940B1387810F0070F01D089F80080387820433870E01DC1B2B2
:2039B000304600685A4608F0B5F8641CE4B2062CE1DB6D1CEDB2052DB3DB02E040464C46EE
:2039D0002070387810F0380F02D010F0070F01D1584638702F4CDFF8C4802078C0090BD37B
:2039F00048460078002840D126483978007808433BD02078C00942D23E78002E3FD02148BA
:203A10000078B0423BD1267008F096FD58B93878093817D0401E12D0401E16D0401E19D14A
:203A30000A20207016E01C48007898B9387809380ED0401E09D0401E04D0401E0AD10B20FD
:203A5000207007E00C20207004E00920207001E00A202070207840F0400020704046006865
:203A70004FF0804109F07EFC09E0207800F0BF002070404600684FF0005109F073FCBDE878
:203A9000F88FC0466F0900206E0900208A1D0020681D00206D090020790C0020781D0020FE
:203AB0002DE9F04F04461646B068ADF16C0D00281A9302D003D5062000E00120B060894647
:203AD000302162A58DF8001095E80C00471C2046494605F00DFCA24638BF89F00049002445
:203AF00012E03020087055E09BE80C0002F0D0FD641E8946824611E09BE80C00504601F059
:203B1000A5FE641C8946824654A20CCA494605F032FC0FF2401BEFD34FF0000895E80C006F
:203B3000504605F0E5FB05D04EA20CCA504605F0DFFBD9D3504607F065FA0DF101011990C9
:203B500006F090FE0DEB00052418874205F1010518DD3F1A199808F048FB0B460246494671
:203B7000504600F05FF99BE80C0002F091FD8946824607F047FA199030307F1E05F8010BCA
:203B9000E8D102E00DEB07056D1C15F8010D35280ADB294611F8010D401CC2B23A2A08705E
:203BB0009FDA6F468F4204D040460DF10107287002E0641C05F8018C14F1030F07DBB06801
:203BD000A04212DA022CA4BF641EA04405DA002C04DCC4F10104A8EB04080124307B1A9A48
:203BF000801EC1B2404606F00DFF384609F064F80025401E844219DC021B521C002803D481
:203C1000395C302901D004E0302115B933681B0908D3DDF868C0DCF800305D1ECCF80050A8
:203C300001251970521EA0F10100E7D13068002200F00800284318BF01221A9B214638465A
:203C500005F026FF1BB0BDE8F08FC046000000000000000000000000000024400000C0FF22
:203C7000FFFFDF41000000000000F03F2DE9F04FADF1240D079001F01FFF6048007808F005
:203C9000BBFB5F4D0024012806D90C3804D0401E0ED0401E09D006E008F0DEFE022804BF54
:203CB00001210C1C06D0696805E005211F2401E0032107246960534A1068C0F381500128FA
:203CD00006D152F80C0C0127020E07FA02F0044309F08CF8524AFF234018401E471C28604D
:203CF0007F1E02F8013BFBD1079A1268002702F0FF03FE2B20D0DDF81CC096463B46012691
:203D10000EF0FF02FF2A10D0904205D3914203D806FA02F2144201D002206CE017430EF052
:203D3000FF02DFF8FCE00EF802305CF804EF5B1C0EF0FF02FE2AE5D1092003F081FF0798B1
:203D50000121A86005F1280008F0C0FA05F19806A8464FF0010A4FF0040B0025A9460AFA27
:203D700005F0044216D1074204BF05F0FF0141F4C04104D02A480799405D51F82010224874
:203D900003F030F9E8B24FF0FF3108F0C3FDC6F8009001E0C6F800B0D8F800006D1C361DED
:203DB0008542DCD904A809F008F8184C184A2078102104AB059008F10C0007F0EBFC68466E
:203DD00009F01CF8CDF80C906A4660681149029008F1640007F078FD0F4951F80D0C20F46A
:203DF000F85040F4005041F80D0C0C4FC1F8FFAF4846C7F800A009B0BDE8F08F8B1D002041
:203E1000A0060020B43F0050007FC76780E3000041C90000A5B500000D300940080009403E
:203E3000E40600202DE9FC4F83F0004301E02DE9FC4F1F03FF0847EAD2574FEA42284FEAB0
:203E500043095FEA595906D147EA080A1CBF00210020BDE8FC8F57F000575FF4E06E1EF157
:203E7000FF0EF14505D14FF00000190D0905BDE8FC8F002B05D55FF0000AD8F100086AEBF2
:203E900007070C03E40844EAD0544FEA40254FEA4106760D08D144EA050A19BF00210020E7
:203EB000191C101CBDE8FC8F44F00054764504D10020090D0905BDE8FC8F002904D55FF084
:203ED000000A6D426AEB0404B6EB090E08D5A2463C465746AA464546D046CEF1000E4E462E
:203EF000BEF1360F5CBF4FF0000B23E0BEF1000F04BF4FF0000B1AE0CEF1390ABAF12009BB
:203F10002EBF08FA09FB07FA0AFB4BEA080BDEF1200A07FA0AFA38BFBA4647FA0EF72DBF29
:203F300028FA0EF8AEF1200E4AFA0EF8D04415EB08057C4154EA050A02BF00210020BDE860
:203F5000FC8F002C58BF4FF0000A06D55FF0010A5FF0000E6D426EEB0404A6F101066D008D
:203F70006441FAD515F4806E11D005F480794BEA090B15F5806554F1000428BF761C0BD21C
:203F900005F400795BEA090B08BF25F4006525F4E0656D0044EB0404B61CDEBF002100204F
:203FB000BDE8FC8F5FF4E06E1EF1FF0E76450AD34FF0000013F00043FF21C900C91D09050A
:203FD0001943BDE8FC8F270547EA1530210B41EA065141EACA71BDE8FC8F70472DE9F84357
:203FF000614C5A4D5A4EDFF870815E4F94F8E4100846401E0B2864D8DFE800F07B2C4306FE
:204010002343062343067664042907D001220A2945F8212C14BF0220032004E0202045F881
:20403000210C0120024684F8E200002045F8390C0827C5F8FF7FC5F8F37F45F8392CBDE8FA
:20405000F883052914BF09200620002784F8E400376075E094F8E170383D0120002FC5F8B3
:204070001B0004BF0620002102D00021F160032084F8E400032045F8010C31603068800826
:204090005ED294F8E4103348012703290ED00068456800216022052300914046A84794F841
:2040B000E400062814BF0A200720CFE700684568002160220523022000904046A8470420D9
:2040D000C4E7FEE72548264F0026012506600E203D6003F08BFB022007F098FE84F8E45009
:2040F00084F8E360BDE8F883002038600C25786024E04FF08059D9F8A0010168202088470A
:204110002C3D0F2045F8010C41F61D56C5F80360D9F8A401466800214FF4C07207230225D8
:2041300040460095B047D9F8A401C66800214FF4C07207234046B0470120386084F8E45013
:2041500004F1780008F0EAFFBDE8F88339400C4038600C40A401001000A00C402C500C40CF
:2041700004800C4034600C40B40700202DE9F04307AF14460546ADF1140DD7F80C90ADF831
:204190000C1002A90091AA6AA98C1E460DF10E0305F046FC002800F1AB800220009003AB20
:2041B0000193A969BDF80E302869029A03FB01032846042103EB4203002204F0EBFC00283C
:2041D00000F19680E86C401CE864207900F0FE002071E969AA69B2FBF1F04000B0FBF1F3F2
:2041F0002BB1B2FBF1F04000B0FBF1F000E001200523DDF8088000930194DDF808C0BDF879
:204210000EE02B69604402FB0E3201FB002307212846002204F0BEFC002869D41EB3E8691F
:20423000A969B1FBF0F25200B2FBF0F32BB1B1FBF0F25200B2FBF0F200E001223B68009368
:204250000196BDF80EC02E697B68424401FB0C6100FB0210072100221B1828465B1D04F067
:2042700099FC002844D43F7A47B321798A0825D321F002012171E869A969B1FBF0F2520099
:20429000B2FBF0F72FB1B1FBF0F25200B2FBF0F200E0012201230093241D0194BDF80E4098
:2042B0002B69424401FB043100FB02132846072100221B1D04F06EFC002819D4B9F1000F77
:2042D00016D0EA69AB69B3FBF2F14C00B4FBF2F7002F08BF012204D0B3FBF2F14B00B3FB95
:2042F000F2F2BDF80E3001FB03815218A9F8002005B0BDE8F08370472DE9F04F4FF6FF7699
:204310004FF0000B05464FF0020AADF1240D3746B0465C46ADF81CB014E0BDF820008045CA
:204330000BD0BDF82000B842D8BFBDF82070BDF82000A042A8BFBDF82040BDF81C00401C87
:20435000ADF81C00286ABDF81C10DFF82C91884233D817B94046A04207D0E01BB0F5004FB2
:20437000A8BF3C1C641CA1B200E059464046A5F85610B04207D02846314602F00CFF0028C0
:2043900048BF041C17D45846A864E864394928655C4607AF009006AE01915A4602905B46F5
:2043B00003945946049728460596FFF78DF949462F3981425BD1204659E0E869A969B1FB03
:2043D000F0F25200B2FBF0F32BB1B1FBF0F25200B2FBF0F200E00122CDF800A00DF11E0337
:2043F0000193BDF81CC02B6901FB0C3102FB001328465A4615211B1F02F09EFC002836D46F
:20441000BDF81C20286AE969BDF81E30801A81EA000240F22950504080B2984205D0B0459C
:2044300018BF484623D1BDF81C60A869B0FBF1F25200B2FBF1F32BB1B0FBF1F25200B2FBF7
:20445000F1F200E00122CDF800A008AB0193BDF81CC02B6900FB0C3002FB010315215A4687
:2044700028469B1E02F068FC00287FF556AF09B0BDE8F08F0DC10000D7D8FFFF00B5ADF163
:204490002C0D03A808F084FB554991F8290D00282DD0084690F8291D490918D290F8291D09
:2044B000090912D290F8291DC9080CD290F8291D890806D290F8291D490834BF0DA20FA2D0
:2044D00006E018A204E024A202E030A200E039A24249096800910192D0F8380D414B0290C8
:2044F0001988002203A840F2C94308F037FF0BB000BDC046556E6B6E6F776E004942555331
:204510004552523A20496E737472756374696F6E204163636573732056696F6C6174696FCD
:204530006E00C0465052454349534552523A20496D6D6564696174652042757320466175D9
:204550006C742C2065786163742061646472206B6E6F776E00C046C0494D505245434953E0
:204570004552523A2044656C6179656420427573204661756C742C20657861637420616484
:20459000647220756E6B6E6F776E00C0554E53544B4552523A20427573204661756C742007
:2045B00063617573656420627920537461636B20506F700053544B4552523A204275732097
:2045D0004661756C742063617573656420627920537461636B205075736800C0D0E30000F6
:2045F00000E000E0841200002DE9F04F04468C46ADF11C0D206AE1690390606BCDF808C05E
:204610004FEA510B059000208246054604908FE0A669A946A8464F464DE00091606B01908F
:204630002069002207FB01000AEB00031421204602F082FBA6690BFB07FC04E009F10101C2
:204650001FFA81F96D1C002834D1A5EB0C018B4530DDE369B6FBF3F14A00B2FBF3F2002AA0
:2046700008BF012204D0B6FBF3F14A00B2FBF3F28A1AAA421EDDDDF814E06A00A2EB4C0262
:204690003EF80220002AD9D04FF6FF7E964504D04800B0FBF3F75FB10BE008F101021FFA81
:2046B00082F8029A4245CDDA4800B0FBF3F707B9012701207F1C80B9E169B6FBF1F25200BC
:2046D000B2FBF1F3002B08BF012204D0B6FBF1F25200B2FBF1F2BA429FDC012801D008B1B0
:2046F00020E00020E269B6FBF2F14B00B3FBF2F7002F08BF012204D0B6FBF2F14B00B3FB4F
:20471000F2F209EB08077F1ABF180BD10299414508DB206D0499A0EB09002065204607F0B2
:20473000A9FB0EE00499B2440025491C89B2049138B90399491EB1F1FF3F03917FF468AFF8
:20475000014807B0BDE8F08FD3D8FFFFB0B5456884684F48297BADF1180D012916D0217ED1
:20477000627E4C4B2F7E0143009143EA02010191494937F0010718BF081CA27E10430290AD
:2047900095F895000322FF2811D00DE0677E217E3843A37E019041F00041009143F00040A6
:2047B0003E49029095F89500014304220391FE204DF82200694605F1980003F0A5FDC5F89C
:2047D000A400002808BF00205FD0287B344951F8200001282BD02068B0F1804F14BF22222B
:2047F0000A22217ED5F8A40007F010FC2068B0F1804F14BF21220922617ED5F8A40007F0EA
:2048100005FC2068B0F1804F14BF24220C22A17ED5F8A40007F0FAFB95F89510FF2933D06F
:204830002068B0F1804F14BF23220B2228E02068B0F1804F14BF21220922217ED5F8A400DA
:2048500007F0E4FB2068B0F1804F14BF22220A22617ED5F8A40007F0D9FB2068B0F1804F24
:2048700014BF24220C22A17ED5F8A40007F0CEFB2068B0F1804F14BF23220B2295F8951022
:20489000D5F8A40007F0C2FB012006B0B0BDC046000480A0004000800004C0A000200080B1
:2048B00070E0000000B5ADF12C0D03A808F070F94F49B1F82A0D002831D00846B0F82A1D22
:2048D00049081ED2B0F82A1D890818D2B0F82A1DC90812D2B0F82A1D09090CD2B0F82A1DAB
:2048F000490A06D2B0F82A0D800A34BF0DA10FA108E011A106E019A104E022A102E026A139
:2049100000E032A13C480068009000220191394B0292198803A840F2EC4308F01FFD0BB010
:2049300000BDC046556E6B6E6F776E0044495642595A45524F00C046554E414C49474E459D
:20495000443A20556E616C69676E6564206D656D6F72792061636365737300C04E4F4350D7
:204970003A20417474656D7074696E6720746F2075736520636F2D70726F636573736F7241
:2049900000C046C0494E5650433A20496E76616C696420504300C046494E56535441544579
:2049B0003A20496E76616C6964204550535220616E6420696E737472756374696F6E2063B4
:2049D0006F6D62696E6174696F6E00C0554E444546494E5354523A20556E646566696E654D
:2049F0006420696E737472756374696F6E00C04600E000E084120000ECE300002DE9FC41E3
:204A100005466C68AF680E4608F08EFB217809B1617811B108F0AAFC8DE04FF0010884F8BE
:204A3000018008F0A3FC3269B968464801EB42010068497807F01AFB3069B968FE2311F8BC
:204A50001000019340F020406946009004F1880003F05AFCC4F89400D4F8940048B12779C4
:204A7000317C617157B938490968012904D007F0FBFE002060705EE084F80480C4F88460E9
:204A90006F6828463146424605F00EFD387C012803D12846002205F007FDD7F89810496860
:204AB00080200968294B886206271F606F6842462846314605F0D0FF387C012804D12846A3
:204AD0003146002205F0C8FFD7F89800406800684FF400718162D7F89C1049680968404640
:204AF000C86608F07BF9A07808B907F05BF9E07928B9A079217A102202F0BAFD03E0A07923
:204B1000102103F043F8D4F89C0006F0E3F8022007F094FA607C90B9D4F8A01004F1680642
:204B3000304608F026F950B1284607F025FA3046002108F01EF94FF0FF30BDE8FC810020FD
:204B5000BDE8FC818C00001008800C4014500C402DE9F04704466568A6680F46ADF1200D71
:204B700008F0E2FA95F8DC10012903D108F0FEFB002085E04FF0010A85F8DCA008F0F6FB38
:204B90003878287078686860387AE860706803F057F8204606F00CFBF868676828B9A06886
:204BB00090F8149090F8158003E090F8009090F80180B9F1FF0F15D0B8F1FF0F12D03248E8
:204BD00040EA09010491FE23069340EA080004A9059007F1980003F097FBC7F8A400D7F887
:204BF000A40070B9294800240460294F3C60706802F0FCFD08F098FA85F8DC4008F0B6FB3C
:204C10003DE049460D2207F001FAD7F8A40041460E2207F0FBF9684608F0CFF8307B0094F6
:204C30006B46B1681B4A019005F1100006F0B2FD684608F0E3F8306900946A4616490290AA
:204C500005F12C0006F040FE05F16000514607F03DFB287830B905F17C00002107F036FB8E
:204C70000E48686000202872C5F8BC000C4AC5F8C0000421234605F1C80007F0D1FB20468B
:204C900008B0BDE8F087C0460020008404280040100405424D5F0000C59C0000CDD0000015
:204CB0003DCE00002DE9FF4104466668A7680D4608F03AFA3178012903D108F057FB0020CC
:204CD0008AE00121317008F051FB287870706878B07068687060A868B060E868F0602869E2
:204CF0003061287D3075687D7075A87DB075A869B061287F3077687F7077A87FB0774FF0EA
:204D10000008C6F82080C6F83080454675627563B562B56386F82C5086F82D50786802F07F
:204D30008FFF204603F006FE204603F04FFE60B9386807F0E9FC786802F058FD08F0F4F931
:204D5000357008F013FB2C4645E0684608F035F80094387B224A0190B9686B4606F17C00A5
:204D700006F018FD684608F049F800941D4938696A46029006F1980006F0A6FDB07830B91B
:204D900006F1CC00294607F0A1FA17483061707830B906F1E800294607F098FA1348F060FC
:204DB000684608F043F901958DF800501049029406F582700A226B4605F076FEB969FA69EF
:204DD00006F13C0007F0CCFF0A4A06F168000421234607F025FB20460090BDE8FF81C04655
:204DF00099540000758A0000F5D00000EDD0000035B100006DCE00002DE9F04F044609AFBD
:204E1000E06BD7F80890B7F804A03E88ADF1140D9046009100270390C3F30E010193BB467D
:204E3000206C029168E0039A290101EB45118918B1F904706FB1CF6A5FB1CA88029B6FF379
:204E5000DF32934205D1009B2046324601F014FE206C6D1C56E0039802993D0105EB4715FF
:204E70002D18E8886FF3DF30814243D1002E37D1B8F1020F0CD1B5F9040020B1296A11B180
:204E9000204606F047FCA5F804B0A5F806B027E02B8D7BB3B9F1000FA5F80CA020D0B9F136
:204EB000FF3FC5F8089009D0296A484641B10B8ACA68D218824228BF101C01E0296A5846C9
:204ED0006A69904238BF6861AA69904238BFA86131B1CA68401C904202D2204606F01AFCF0
:204EF000288A864206D1B8F1020F0CBFA5F80EB0A5F80EA07F1C206CB842ACD838F0010751
:204F100002D15D46A8428ED8676EE7B1DEB90198C00BC60317D0B8F1010F0FD0B8F1000F53
:204F30000AD0B8F1030F07D0B8F1040F04D0B8F1020F08D1022102E0012100E05946029A90
:204F500020465346B84705B0BDE8F08F2DE9F04307AF894616460546ADF1140DBC68B7F863
:204F70000480ADF80C3002A90091AA6AA98C0DF10E0304F055FD0028B44600F18E80E9696F
:204F9000AA69B2FBF1F04300B3FBF1F6002E08BF012104D0B2FBF1F04200B2FBF1F1BDF889
:204FB0000E30029A00FB032009188EB204B12680BCF1000F14BF64463C68BCF1000F0CD1B7
:204FD000E8692B69494606FB0032009008FB0033284605F0B1F9002718E0277947F002004F
:204FF0002071207900F0FE002071E8690090CDF804C02969002206FB00130721284603F03D
:20501000C9FD7F1087F0010707F00107002844D4E969AA69B2FBF1F04300B3FBF1F3002B7A
:2050300008BF012304D0B2FBF1F04300B3FBF1F30221009103A90191D5F810C0B6FBF0F11D
:205050004143711AC91AB6FBF0F3480002FB0300042100220CEB0003284603F09BFD002810
:205070001BD4E86C401CE8649FB1207900F0FC00207101270097231D0193E96928694A46C9
:2050900006FB01031B1D2846072103F083FD002803D44146284602F01DFD05B0BDE8F083ED
:2050B0002DE9F04FADF1240D9B46059186680692446804905944129A70680792884238BF04
:2050D0006FF00309C0F08D80484DE8684FF0FF3107F04FFEA846378C6068AF60079B68600E
:2050F000580819D21846800813D3F768002F72D03569002D6FD00097019501200290059931
:20511000069A04985B4604F06BFB5FEA000964D112E04FF000090FE0A0680BEA00023BEA74
:2051300000071CBFB1680A4405990140049801F0E9FE5FEA000950D134680598DDF818A08A
:205150005F46241805E0B8F80810049807F0F6FDAA44A7B90798C0083FD3F06800283AD0DA
:205170003169002937D00090019100200290069A059904985B4604F033FB81462DE0049874
:2051900005F06EFA38BB049806F0FCFC18BB04F0FF05C5F58075BD4288BF3D1C0220230CBB
:2051B0008DF80F40220A8DF80C00B8F808108DF80D3004988DF80E2007F0B7FD03A80421FA
:2051D00005F0C2FC7F1B641928B95046294605F0BBFC0028B7D04FF0FF39D8F80C0007F06A
:2051F000AFFF484609B0BDE8F08FC046E01F00112DE9F04706467468D6F808800D46ADF1B4
:20521000180D07F091FF07462078012804D1384608F0ACF8002087E04FF001094FF0805AEC
:2052300084F80090DAF8A001016810208847DAF8A001016880208847384608F097F8002700
:2052500067702868C4F8A0006868C4F8A400287A6074287CE77027712074686928B9A771E4
:20527000E77103202072484609E00078207268698078A07168694078E0716869C078A070C3
:2052900002A807F037FD04208DF80E7022238DF8080002A9ADF80A30384601F0E7FFC4F895
:2052B0009C00D4F89C00002808BF3E1C3BD0D5F804A0684607F02EFF0199D4F89C00B1FB95
:2052D000FAF1491E07F0F6FED4F89C00494607F047F9287A30B904F16800394606F0F6FF01
:2052F000134800E0E868E06002A807F066FD98F804000296302102AB0E4A039004F11800AD
:2053100006F048FA02A807F079FDD8F80000029602AA0949049004F1340006F0D5FA04F052
:2053300053FFC4F89800304606B0BDE8F087C046B5D00000919400005FB800002DE9FE4F45
:2053500005468946E869A969B1FBF0F25300B3FBF0F7002F08BF012404D0B1FBF0F251007C
:20537000B1FBF0F42B6AAF6CEE6C296D121B9B1E032F03FB02F3A3EB06034FF00006A3EB78
:20539000010403D9421F62434A4519DC00EB0902401F0919921FB2FBF0FA514513DBB34656
:2053B00027465B46002FD8BF01232846694601AAFDF744FD002861D4019838B9544502DD89
:2053D0000020BDE8FE8F2F48BDE8FE8F009804880123214685F854302846FBF7A1FF85F895
:2053F00054B000284AD42846214602F077F8002844D42846214606F03DFD5FEA000C3ED471
:20541000E869AA69B2FBF0F14B00B3FBF0F4002C08BF012204D0B2FBF0F14A00B2FBF0F25C
:20543000D5F820E0EB6CD5F850808A1AAEF10204002F04FB02F4A4EB0304A4EB080401DC20
:20545000BC4209D0761C052E06DAAA6C022AA7D9421F62439145A3DC4A00B2FBF0F7401F66
:205470004A4607B90127AEF10204C91B4C43E41AA4EB08046043904201DA024884466046E9
:20549000BDE8FE8FEFD8FFFF2DE9F84F8046D8F808603068D8F80450076CDFF830B1476418
:2054B000AB6B6A6C286C17F4F06F1946A0EB020934D1F8091ED2780974D3B1B196F821200E
:2054D0005846801D845C601E814294BF1C1C641E4046214606F072FEA86B001BA86361D195
:2054F00005F19800012107F033FE4046494607F00FF857E00029F8D0404606F05FFE95F823
:205510002D10A86311B900284CD101E00020A86305F19800012107F01BFE43E0F80A20D241
:205530004FF0000A544602E0AB6B5B1EAB6393B14046012106F042FE3068446814F00F047C
:20555000C0F804A0F0D0286B401E2863686B401E6863A86BE8B905F19800012107F0F8FD57
:2055700013E0306844680022202904F00F044260CCBF4FF0200A9A464046514606F01EFECD
:20559000CAF120008145C8BF81464946404606F0BFFFEC77404604F05DFC726A12B14046E8
:2055B00021469047B8090FD3A96A69B10F46404606F032FEA86238B996F820205946895C7F
:2055D0004046C91905F038FBBDE8F88FB8DF000000B5ADF12C0D03A807F0DAFA4A4991F84A
:2055F000280D38B3084690F8281D490912D290F8281D09090CD290F8281D890806D290F8AF
:20561000281D490834BF0CA20DA204E016A202E021A200E02EA23B49096800910192D0F8C2
:20563000340D3A4B02901988002203A840F2A94307F094FE0BB000BD556E6B6E6F776E0085
:205650004941434356494F4C3A20496E737472756374696F6E204163636573732056696F34
:205670006C6174696F6E00C04441434356494F4C3A20446174612041636365737320566969
:205690006F6C6174696F6E202852442F5752206661696C65642900C04D554E53544B455267
:2056B000523A20556E737461636B696E67204572726F72202852442F5752206661696C6516
:2056D00064292C20537461636B20506F7000C0464D53544B4552523A20537461636B696E47
:2056F00067204572726F72202852442F5752206661696C6564292C20537461636B2050757E
:20571000736800C0DCE3000000E000E0841200002DE9F04F164607468846ADF1740DB468C2
:205730001C93002C44BF0624B4600FF2F80A9AE80C0003F020FE4FF000050FF208192CD930
:205750000FF2E80B9BE80C00384603F0D1FD0FF2EC0A0BD937A20CCA03F0CAFD2ED09AE8B3
:205770000C00384603F0C4FD02D310E09BE8800199E80C004146384600F08AFF9AE80C0079
:2057900003F0B6FDA5F1010507468846F0D399E80C0003F0F0FD02D910E09AE8800199E81D
:2057B0000C004146384600F051F899E80C00074603F0E1FD05F101058846F0D9009402A813
:2057D0000B463A46019003A800F00CFA04460298022809D1401E0290204607F06DFA6D1C91
:2057F0000021001900F8011C28461C9D317B2A4605F008F9B268029920462B4606F008F88F
:20581000204607F059FA02990122884203D13068000938BF002220462B4604F039F91DB0E8
:20583000BDE8F08F000000000000F07F000000000000F0FF000000000000000000000000D6
:205850000000F03F00000000000024402DE9FC4191EA03084CBF4FF000484FF000084FEABA
:2058700003354FEA153556006D414FEA43075FEA575711BF45F4001500210020BDE8FC815E
:205890004FF4E06E1EF1FF0E77456FD04FEA01334FEA133342005B414FEA4104640D11BFC7
:2058B00043F4001300210020BDE8FC8174455DD0E41B002100205FF0360EAB4200D1B242C0
:2058D00005D340414941921B63EB050301E040414941BEF1010E05D053EA020702D05200E9
:2058F0005B41EAE7BEF1200F09D2BEF1160F0CD3CEF1200720FA07F100FA0EF00FE0AEF141
:20591000200E00FA0EF1002009E001FA0EF1CEF1200720FA07F741EA070100FA0EF011F41F
:20593000001F02D140004941641E401C51F1000111F4800F1ABF641C21F4800121F40011D1
:205950004FF44077FF37E419DEBF00210020BDE8FC8107F58067BC4208D249084FEA300095
:2059700041EA045141EA0801BDE8FC810020FF214FEAC101C91D4FEA015141EA0801BDE8BC
:20599000FC8170472DE9FC4705466E68D5F8088037780FB1B76B1FB14FF0FF30BDE8FC87FD
:2059B00031630024F477171C74631BD006F13C0907F0BAFB82466946484605F00AFF0028AC
:2059D0001ED4504607F0D2FC9DF80000316B0870306B736B7F1E00F10100306303F1010031
:2059F0007063E5D17078726B316B0128A1EB0201316303D1F36828469847726B144655E079
:205A1000B763504607F0B2FC07F08EFB294D0746287820B9022006F011FB0120287038460A
:205A300007F0A4FCD8F80010086B40F400700863D8F80010886B40F4FA608863707808BB66
:205A5000716806F1E807384607F093F9B8B1B4633846214607F08DF988B107F065FB0746B7
:205A7000287818B1022006F0D1F92C70384607F07DFC1027716B306BF777401A3063706B5D
:205A9000BDE8FC8707F050FB96F82D1061B1716B51B1B16B41B1B46307F068FC06F19800C2
:205AB000012107F055FB01E007F060FC2046BDE8FC87C0467C1D00202DE9FF47484C94F870
:205AD000E700002876D13E4E01273C48F57C84F8E770736884F8E6500068C4F81031C0F33F
:205AF000801084F8E800684607F0A0FA002504F10C0001956B468DF80050324902952A469F
:205B100004F0D2FF304904F130006B462A4604F0CBFF2E4904F154006B4681462A4604F097
:205B3000C3FFB16838468847DFF8B0802848327D08F104030078284E1868C0F3815A22B138
:205B5000BAF1030F04D184F8E170BAF1030F17D0BAF1020F14D0BAF1010F0ED0022006F0E1
:205B70006DFA1C480068016804208847012804D030683221B1FBF0F10DE005F0C3FE12E07C
:205B9000022006F05BFABAF1030F0CBF4FF47A7142F210713068B1FBF0F1484607F0BCFABD
:205BB000484607F0BBFA40460068C00802D2284606F044FA00200090BDE8FF871410094027
:205BD00058E20000EB3F000075820000C19900008B1D0020E00100102C040020B03F0050B8
:205BF000B40700202DE9FE4F804608F101043020924699461946DDF834B001940C9F88F8B4
:205C10000000104637A20CCA03F072FB38BF89F00049002612E0302008704DE095E80C00C0
:205C300000F036FD761E894682460FE095E80C005046FFF70BFE761C894682462DA20CCA2B
:205C5000494603F098FB29A5F0D37F1C25A20CCA504603F04DFB05D028A20CCA504603F087
:205C700047FBDBD3504605F0CDF92146009004F0F9FDBF1931182418002FCBF8001016DDA0
:205C9000009806F0B2FA0B46024649465046FEF7C9F895E80C0000F0FBFC8946824605F04A
:205CB000B1F9009030307F1E04F8010BE8D114F8010D352810DB214611F8010D401CC2B22C
:205CD0003A2A0870A7DA884506D1DBF80000CDF80480401CCBF80000002101982170BDE888
:205CF000FE8FC046000000000000000000000000000024400000C0FFFFFFDF4100000000C0
:205D10000000F03F2DE9F04304466568A7680E46ADF1140D07F008FA95F8E11019B107F08A
:205D300025FB00206EE04FF0010985F8E19007F01DFB4FF00008C5F8888030692861706978
:205D50006861307E2876307B287330782870706885F8AC80686070694146092828BF494648
:205D700085F89410387B01F06BFF204604F026FDF87E85F895002046FEF7E8FC30B9387B04
:205D900001F034FD444685F8E1803AE0684607F014F8009478791D4A019039796B4605F1C8
:205DB0001C0005F0F7FC684607F028F800941849B8686A46029005F1380005F085FD04F01A
:205DD00003FAC5F8A800287B012808D1D5F8A400104907F0CDF8D5F8A40000B184600E4AC8
:205DF00005F1CC000421234606F01AFB287830B905F16C00414606F069FA084800E0B06825
:205E1000A860204605B0BDE8F083C046B9830000619100008DB20000F9CF0000D5D0000057
:205E30002DE9F84F0C9CDDF82C800A9E994693468A46074606F08AFDFD6E00217422384632
:205E500003F0E0FBBAE80E103846A0E80E109AE80E1080E80E105846F969BA69B863FB68B9
:205E7000FD660918B3FBF2F07963002132463862484603F0C7FB4D46E9B201F0030011F089
:205E9000030F03D02D1A36182D1D361F5FFA88F23020FD6312F0030FB6FBF0F002F00301BB
:205EB000386405D0A8EB0100641800F10408241F14F0030F18BF24F00304F869C7F8588011
:205ED000B4EB401F88BF4401FC65384603F0B2F8F869BA69B2FBF0F14B00B3FBF0F6002E8D
:205EF00008BF012204D0B2FBF0F14A00B2FBF0F24308891A001FB1FBF3F25A43891AB0EBF4
:205F1000410F03D20B48786404460CE00A4838673846FEF7F1F90028F5D401210D9887F862
:205F3000681000243866384606F0C6FD2046BDE8F88FC046D4D8FFFF15030920B0B544684C
:205F50008068006806F0BCFC4049012201F118031A60B8B1257AFF2D14D010F0140F07D1ED
:205F7000277A2FB1FF202072042743F8187C29E0C00804D304200860022007F0BEF8FF20C3
:205F900020725DE0207A00285AD0314B401E1DD0401E02D0FD3853D04FE01D68D4F8B400B3
:205FB0000570D4F8B870D4F8B400401CC4F8B400781EC4F8B800D4F8B87027B3012F39D902
:205FD00009220A60022007F098F8B0BDD4F8B000401EC4F8B000D4F8B070C7B9D4F8B87060
:205FF0008FB10220D4F8A8202072127C0B1F012F4FEA420242F001021A6099BF03215960C0
:206010000B220A60DFE7002004222072D9E7D4F8AC0000781860D4F8AC00022F00F1010078
:20603000C4F8AC00CDD2D4F8B870002FC9D100202072052243F8042CC4E7FF202072B0BD7F
:2060500004F12C0007F086F8B0BDC04604280040082800402DE9F04786000D463B48DFF8CB
:20607000F0900168824601EB0608280F33D2680C11D24846C5F3414200F1180151F8224054
:20609000C5F30351032928BF002100EB8100C0680127044308E0C5F34140032828BF00205A
:2060B000494651F82040002707F03EF8012F05D1290D2CBF27494FF000410C43DAF80030DC
:2060D00025499A5905F47F07114047EA01029A5107F04CF900E0002415F0E06714D007F0F9
:2060F00023F8DAF80020915921F08E410F439751C5F30262062A28BF00224946283151F8F9
:2061100022100C4307F032F998F80000134F98F801100443386839B9214603F033FE70B9AC
:20613000012088F801000EE0290F2CBF4FF4E0210B49224621F4802105F0B4FC18B14FF039
:20615000FF30BDE8F0870020BDE8F087E4E20000F0DF000000004080FFFF00BFCC080020A2
:20617000007FC7672DE9F041404C05460C3CE068ADF1280D18B905F079FCE06848B33949E1
:206190000978A94225DD4FF0FF3106F0F2FD3649A80000EBC50045186F68AE683878012833
:2061B0002ED0B268511EC843B860E0683368844619420BD17068824208D8B96801408142A0
:2061D00004D1706940BB318B042904DB604606F0B7FF002542E08A001019036904F1100879
:2061F000A3B9684606F040FDF0690023049069468DF80C30307E8DF8003005F00BFA08B9B4
:20621000002528E0318B8A0048F80200605C58F80220401C605400E002687A607868318CBA
:2062300060602846A16006F059FB0126AB203E7021898DF82000284606F077FD08A83146E7
:2062500004F082FC21890746284606F077FD17B9284604F005FAE06806F072FF28460AB0E5
:20627000BDE8F081B2E3000048E30000EC1F00112DE9F84FD0F88890D0F88CB0D9F80020EA
:20629000A2EB0B02B2F5806F88BF4FF48062C0F89020D0F8908090F894C00C681FFA88F22F
:2062B000B4F1804F02FA0CF21FFA82FA14BF314B314B2D4AD9F808703FB94FEA8C050095E9
:2062D000AD18AE6900F1AE050AE04FEA8C050095AD182E690CF101050BFB057555446D1EE2
:2062F0009E6096465D604FEA081643F6F07204F10805103E1D6032409E68B4F1804F42EA20
:2063100006069E600CBF194E194ED9F804706FB9CC89009BA0F8AE4073449B69B36000F128
:20633000AE0737600C6804F108050AE0009B73449B68B3600CF101030BFB037353445B1EAC
:2063500033607560B3681A43B260D0F8A8000A6940684969006811438162606A40F0030062
:206370006062BDE8F88FC04670E00000400400201005002000050020300400202DE9F84F5A
:206390003648DFF8DC800188491C89B20180B8F800208A420EDC002236490280364B0888D8
:2063B000401C80B208801B88834200D10A8001F07BFA45E0DFF8C4A0DFF8C4900021834619
:2063D000DFF8A4E0274C4B00504603EB81031E18B8F80050328848461F18880000EBC100A3
:2063F00000193C88A41A94FBF5F40460B6F802C07C88A4EB0C0494FBF5F44460B488BE8865
:20641000361B96FBF5F68660BBF800500768734405FB07271F804068491CC9B2062905FB0C
:2064300000C0588005FB06409880CBDB72460020062104F0B1FB13480068012106F092FFA5
:2064500041460A4C0A4A09882068B2FBF1F106F081FF206806F07AFFBDE8F88F841D0020F9
:20647000861D0020201C0020C8000020701D0020A08601007E1D0020821D00204006002051
:20649000080400206C1D00202DE9F0478046D8F80450D8F8087091460E4606F045FE82466C
:2064B0003868006B00F480712878002865D0002963D105F5827006F033FE0024EC772E6258
:2064D00050466C6206F052FF06F02EFE2E4E3378824623B9022005F0B1FD012030705046F8
:2064F00006F044FF3968086B40F4807008634046494605F091FEA862C0B94046494604F08B
:206510009BFBA878C8B9A96805F1CC0006F031FCE0B1AC621020E8773946284603F024F913
:2065300006F002FE8246307838B322E03968886B40F020008863A87810B12046BDE8F087C6
:20655000A96805F1CC0006F014FC10B9686ABDE8F0874046494604F06FFB1020AC6239466B
:20657000E877284603F000F906F0DEFD8246307818B1022005F04AFC3470504606F0F6FEC7
:206590004FF0FF30BDE8F0877D1D00202DE9F04F42F40042ADF1140D9A460C460646DDF8C8
:2065B0003880DDF84890119FDDF83CB00492B8F1000F12D1F0690090B16B01913169B4F9E6
:2065D00004200AFB00131621304600F0B5FB002848BF824656D4B56B00E0454629792B4861
:2065F0004A0828BF08384ED231F07F034BD08A0828BF401E47D2C90803D20499C90BCB035F
:2066100001D1801E3FE06B88002B18BF09383AD1BBF1000F05D005F10D005946402205F011
:2066300057FB07B1AF60002C0CBF0021B4F9041000270097CDF804A003A80290049B2A46E5
:206650003046FEF783FC5FEA000A1BD1B9F1000F1CBFBDF80C00A9F80000B8F1000F08BF8C
:20667000042768880090BDF80C000190A8680290049B29463A463046FEF7BEFB14B1BDF83F
:206690000C00A081504605B0BDE8F08FECD8FFFF2DE9FC4191EA03084CBF4FF000484FF0E2
:2066B00000084FEAC32545EA52554FEAC2264FEA43077F0D11BF45F0004500210020BDE86B
:2066D000FC815FF4E06E1EF1FF0E774555D04FEAC12343EA50534FEAC0224FEA4104640D98
:2066F00011BF43F0004300210020BDE8FC81744543D0E419A3FB0501A3FB06E7A2FB0663E3
:206710001EEB030E57F1000751F10001A2FB05631EEB060E57F1000751F10001FF1851F1B0
:206730000001C01951F100014CBF4FF4806E4FF4007E10EB0E0051F1000148BF641C01D487
:20675000400049415FF44077FF37E41BDEBF00210020BDE8FC8117F58067BC420DD24FEA17
:20677000D02040EA41504FEA41014FEA113141EA045141EA0801BDE8FC810020FF21C90089
:20679000C91D090551EA0801BDE8FC813D4A10B501469068046806F02DFC2070086A2061F6
